{
  "_format": "hh-sol-artifact-1",
  "contractName": "MissInternetToken",
  "sourceName": "Contracts/Token.sol",
  "abi": [
    {
      "inputs": [],
      "stateMutability": "nonpayable",
      "type": "constructor"
    },
    {
      "anonymous": false,
      "inputs": [
        {
          "indexed": true,
          "internalType": "address",
          "name": "owner",
          "type": "address"
        },
        {
          "indexed": true,
          "internalType": "address",
          "name": "spender",
          "type": "address"
        },
        {
          "indexed": false,
          "internalType": "uint256",
          "name": "value",
          "type": "uint256"
        }
      ],
      "name": "Approval",
      "type": "event"
    },
    {
      "anonymous": false,
      "inputs": [
        {
          "indexed": true,
          "internalType": "address",
          "name": "previousOwner",
          "type": "address"
        },
        {
          "indexed": true,
          "internalType": "address",
          "name": "newOwner",
          "type": "address"
        }
      ],
      "name": "OwnershipTransferred",
      "type": "event"
    },
    {
      "anonymous": false,
      "inputs": [
        {
          "indexed": false,
          "internalType": "uint256",
          "name": "amount",
          "type": "uint256"
        }
      ],
      "name": "TaxDistributed",
      "type": "event"
    },
    {
      "anonymous": false,
      "inputs": [
        {
          "indexed": true,
          "internalType": "address",
          "name": "from",
          "type": "address"
        },
        {
          "indexed": true,
          "internalType": "address",
          "name": "to",
          "type": "address"
        },
        {
          "indexed": false,
          "internalType": "uint256",
          "name": "value",
          "type": "uint256"
        }
      ],
      "name": "Transfer",
      "type": "event"
    },
    {
      "inputs": [
        {
          "internalType": "address",
          "name": "owner",
          "type": "address"
        },
        {
          "internalType": "address",
          "name": "spender",
          "type": "address"
        }
      ],
      "name": "allowance",
      "outputs": [
        {
          "internalType": "uint256",
          "name": "",
          "type": "uint256"
        }
      ],
      "stateMutability": "view",
      "type": "function"
    },
    {
      "inputs": [
        {
          "internalType": "address",
          "name": "spender",
          "type": "address"
        },
        {
          "internalType": "uint256",
          "name": "amount",
          "type": "uint256"
        }
      ],
      "name": "approve",
      "outputs": [
        {
          "internalType": "bool",
          "name": "",
          "type": "bool"
        }
      ],
      "stateMutability": "nonpayable",
      "type": "function"
    },
    {
      "inputs": [
        {
          "internalType": "address",
          "name": "account",
          "type": "address"
        }
      ],
      "name": "balanceOf",
      "outputs": [
        {
          "internalType": "uint256",
          "name": "",
          "type": "uint256"
        }
      ],
      "stateMutability": "view",
      "type": "function"
    },
    {
      "inputs": [
        {
          "internalType": "uint256",
          "name": "amount",
          "type": "uint256"
        }
      ],
      "name": "burn",
      "outputs": [],
      "stateMutability": "nonpayable",
      "type": "function"
    },
    {
      "inputs": [
        {
          "internalType": "address",
          "name": "account",
          "type": "address"
        },
        {
          "internalType": "uint256",
          "name": "amount",
          "type": "uint256"
        }
      ],
      "name": "burnFrom",
      "outputs": [],
      "stateMutability": "nonpayable",
      "type": "function"
    },
    {
      "inputs": [],
      "name": "burnPercent",
      "outputs": [
        {
          "internalType": "uint256",
          "name": "",
          "type": "uint256"
        }
      ],
      "stateMutability": "view",
      "type": "function"
    },
    {
      "inputs": [],
      "name": "buyBackEnabled",
      "outputs": [
        {
          "internalType": "bool",
          "name": "",
          "type": "bool"
        }
      ],
      "stateMutability": "view",
      "type": "function"
    },
    {
      "inputs": [],
      "name": "claimRewards",
      "outputs": [],
      "stateMutability": "nonpayable",
      "type": "function"
    },
    {
      "inputs": [],
      "name": "decimals",
      "outputs": [
        {
          "internalType": "uint8",
          "name": "",
          "type": "uint8"
        }
      ],
      "stateMutability": "view",
      "type": "function"
    },
    {
      "inputs": [
        {
          "internalType": "address",
          "name": "spender",
          "type": "address"
        },
        {
          "internalType": "uint256",
          "name": "subtractedValue",
          "type": "uint256"
        }
      ],
      "name": "decreaseAllowance",
      "outputs": [
        {
          "internalType": "bool",
          "name": "",
          "type": "bool"
        }
      ],
      "stateMutability": "nonpayable",
      "type": "function"
    },
    {
      "inputs": [],
      "name": "distributeTax",
      "outputs": [],
      "stateMutability": "nonpayable",
      "type": "function"
    },
    {
      "inputs": [],
      "name": "feePercent",
      "outputs": [
        {
          "internalType": "uint256",
          "name": "",
          "type": "uint256"
        }
      ],
      "stateMutability": "view",
      "type": "function"
    },
    {
      "inputs": [
        {
          "internalType": "address",
          "name": "spender",
          "type": "address"
        },
        {
          "internalType": "uint256",
          "name": "addedValue",
          "type": "uint256"
        }
      ],
      "name": "increaseAllowance",
      "outputs": [
        {
          "internalType": "bool",
          "name": "",
          "type": "bool"
        }
      ],
      "stateMutability": "nonpayable",
      "type": "function"
    },
    {
      "inputs": [],
      "name": "isBuy",
      "outputs": [
        {
          "internalType": "bool",
          "name": "",
          "type": "bool"
        }
      ],
      "stateMutability": "nonpayable",
      "type": "function"
    },
    {
      "inputs": [
        {
          "internalType": "address",
          "name": "",
          "type": "address"
        }
      ],
      "name": "isPair",
      "outputs": [
        {
          "internalType": "bool",
          "name": "",
          "type": "bool"
        }
      ],
      "stateMutability": "view",
      "type": "function"
    },
    {
      "inputs": [
        {
          "internalType": "address",
          "name": "",
          "type": "address"
        }
      ],
      "name": "isRouter",
      "outputs": [
        {
          "internalType": "bool",
          "name": "",
          "type": "bool"
        }
      ],
      "stateMutability": "view",
      "type": "function"
    },
    {
      "inputs": [],
      "name": "isSell",
      "outputs": [
        {
          "internalType": "bool",
          "name": "",
          "type": "bool"
        }
      ],
      "stateMutability": "nonpayable",
      "type": "function"
    },
    {
      "inputs": [],
      "name": "lastTaxTimestamp",
      "outputs": [
        {
          "internalType": "uint256",
          "name": "",
          "type": "uint256"
        }
      ],
      "stateMutability": "view",
      "type": "function"
    },
    {
      "inputs": [],
      "name": "liquidityPercent",
      "outputs": [
        {
          "internalType": "uint256",
          "name": "",
          "type": "uint256"
        }
      ],
      "stateMutability": "view",
      "type": "function"
    },
    {
      "inputs": [],
      "name": "name",
      "outputs": [
        {
          "internalType": "string",
          "name": "",
          "type": "string"
        }
      ],
      "stateMutability": "view",
      "type": "function"
    },
    {
      "inputs": [],
      "name": "owner",
      "outputs": [
        {
          "internalType": "address",
          "name": "",
          "type": "address"
        }
      ],
      "stateMutability": "view",
      "type": "function"
    },
    {
      "inputs": [],
      "name": "renounceOwnership",
      "outputs": [],
      "stateMutability": "nonpayable",
      "type": "function"
    },
    {
      "inputs": [],
      "name": "rewardPercent",
      "outputs": [
        {
          "internalType": "uint256",
          "name": "",
          "type": "uint256"
        }
      ],
      "stateMutability": "view",
      "type": "function"
    },
    {
      "inputs": [
        {
          "internalType": "address",
          "name": "account",
          "type": "address"
        }
      ],
      "name": "rewardsOwing",
      "outputs": [
        {
          "internalType": "uint256",
          "name": "",
          "type": "uint256"
        }
      ],
      "stateMutability": "view",
      "type": "function"
    },
    {
      "inputs": [
        {
          "internalType": "address",
          "name": "newRouter",
          "type": "address"
        }
      ],
      "name": "setRouter",
      "outputs": [],
      "stateMutability": "nonpayable",
      "type": "function"
    },
    {
      "inputs": [
        {
          "internalType": "address",
          "name": "newUniswapV2Pair",
          "type": "address"
        }
      ],
      "name": "setUniswapV2Pair",
      "outputs": [],
      "stateMutability": "nonpayable",
      "type": "function"
    },
    {
      "inputs": [],
      "name": "symbol",
      "outputs": [
        {
          "internalType": "string",
          "name": "",
          "type": "string"
        }
      ],
      "stateMutability": "view",
      "type": "function"
    },
    {
      "inputs": [],
      "name": "taxPeriod",
      "outputs": [
        {
          "internalType": "uint256",
          "name": "",
          "type": "uint256"
        }
      ],
      "stateMutability": "view",
      "type": "function"
    },
    {
      "inputs": [],
      "name": "totalSupply",
      "outputs": [
        {
          "internalType": "uint256",
          "name": "",
          "type": "uint256"
        }
      ],
      "stateMutability": "view",
      "type": "function"
    },
    {
      "inputs": [
        {
          "internalType": "address",
          "name": "to",
          "type": "address"
        },
        {
          "internalType": "uint256",
          "name": "amount",
          "type": "uint256"
        }
      ],
      "name": "transfer",
      "outputs": [
        {
          "internalType": "bool",
          "name": "",
          "type": "bool"
        }
      ],
      "stateMutability": "nonpayable",
      "type": "function"
    },
    {
      "inputs": [
        {
          "internalType": "address",
          "name": "from",
          "type": "address"
        },
        {
          "internalType": "address",
          "name": "to",
          "type": "address"
        },
        {
          "internalType": "uint256",
          "name": "amount",
          "type": "uint256"
        }
      ],
      "name": "transferFrom",
      "outputs": [
        {
          "internalType": "bool",
          "name": "",
          "type": "bool"
        }
      ],
      "stateMutability": "nonpayable",
      "type": "function"
    },
    {
      "inputs": [
        {
          "internalType": "address",
          "name": "newOwner",
          "type": "address"
        }
      ],
      "name": "transferOwnership",
      "outputs": [],
      "stateMutability": "nonpayable",
      "type": "function"
    },
    {
      "inputs": [
        {
          "internalType": "address",
          "name": "account",
          "type": "address"
        }
      ],
      "name": "unclaimedRewards",
      "outputs": [
        {
          "internalType": "uint256",
          "name": "",
          "type": "uint256"
        }
      ],
      "stateMutability": "view",
      "type": "function"
    }
  ],
  "bytecode": "0x60806040527314c60b42328236e8125eb1cf8459e5cafcb161f6600760006101000a81548173ffffffffffffffffffffffffffffffffffffffff021916908373ffffffffffffffffffffffffffffffffffffffff1602179055506002600a556004600b556004600c556002600d556001601260016101000a81548160ff0219169083151502179055503480156200009557600080fd5b506040518060400160405280601381526020017f4d69737320496e7465726e657420546f6b656e000000000000000000000000008152506040518060400160405280600481526020017f4d4953530000000000000000000000000000000000000000000000000000000081525081600390805190602001906200011a929190620003fc565b50806004908051906020019062000133929190620003fc565b505050620001566200014a620001b660201b60201c565b620001be60201b60201c565b60016006819055506200019f600760009054906101000a900473ffffffffffffffffffffffffffffffffffffffff166c0b3827a7d587a0311415e000006200028460201b60201c565b62278d006008819055504260098190555062000658565b600033905090565b6000600560009054906101000a900473ffffffffffffffffffffffffffffffffffffffff16905081600560006101000a81548173ffffffffffffffffffffffffffffffffffffffff021916908373ffffffffffffffffffffffffffffffffffffffff1602179055508173ffffffffffffffffffffffffffffffffffffffff168173ffffffffffffffffffffffffffffffffffffffff167f8be0079c531659141344cd1fd0a4f28419497f9722a3daafe3b4186f6b6457e060405160405180910390a35050565b600073ffffffffffffffffffffffffffffffffffffffff168273ffffffffffffffffffffffffffffffffffffffff161415620002f7576040517f08c379a0000000000000000000000000000000000000000000000000000000008152600401620002ee90620004e4565b60405180910390fd5b6200030b60008383620003f260201b60201c565b80600260008282546200031f919062000534565b92505081905550806000808473ffffffffffffffffffffffffffffffffffffffff1673ffffffffffffffffffffffffffffffffffffffff168152602001908152602001600020600082825401925050819055508173ffffffffffffffffffffffffffffffffffffffff16600073ffffffffffffffffffffffffffffffffffffffff167fddf252ad1be2c89b69c2b068fc378daa952ba7f163c4a11628f55a4df523b3ef83604051620003d2919062000506565b60405180910390a3620003ee60008383620003f760201b60201c565b5050565b505050565b505050565b8280546200040a906200059b565b90600052602060002090601f0160209004810192826200042e57600085556200047a565b82601f106200044957805160ff19168380011785556200047a565b828001600101855582156200047a579182015b82811115620004795782518255916020019190600101906200045c565b5b5090506200048991906200048d565b5090565b5b80821115620004a85760008160009055506001016200048e565b5090565b6000620004bb601f8362000523565b9150620004c8826200062f565b602082019050919050565b620004de8162000591565b82525050565b60006020820190508181036000830152620004ff81620004ac565b9050919050565b60006020820190506200051d6000830184620004d3565b92915050565b600082825260208201905092915050565b6000620005418262000591565b91506200054e8362000591565b9250827fffffffffffffffffffffffffffffffffffffffffffffffffffffffffffffffff03821115620005865762000585620005d1565b5b828201905092915050565b6000819050919050565b60006002820490506001821680620005b457607f821691505b60208210811415620005cb57620005ca62000600565b5b50919050565b7f4e487b7100000000000000000000000000000000000000000000000000000000600052601160045260246000fd5b7f4e487b7100000000000000000000000000000000000000000000000000000000600052602260045260246000fd5b7f45524332303a206d696e7420746f20746865207a65726f206164647265737300600082015250565b6137d480620006686000396000f3fe608060405234801561001057600080fd5b50600436106101fb5760003560e01c806379cc67901161011a578063a9059cbb116100ad578063dd62ed3e1161007c578063dd62ed3e14610594578063e5e31b13146105c4578063e6bbeaaf146105f4578063f2fde38b14610612578063f3d7d2821461062e576101fb565b8063a9059cbb1461050c578063b06837551461053c578063c0d786551461055a578063d030205114610576576101fb565b806395d89b41116100e957806395d89b411461047257806397d5ede514610490578063a29a6089146104c0578063a457c2d7146104dc576101fb565b806379cc6790146103ea5780637fd6f15c146104065780638da5cb5b14610424578063949813b814610442576101fb565b8063313ce567116101925780634fb90848116101615780634fb90848146103745780636053a0e31461039257806370a08231146103b0578063715018a6146103e0576101fb565b8063313ce56714610300578063372500ab1461031e578063395093511461032857806342966c6814610358576101fb565b80630f3d9c9f116101ce5780630f3d9c9f1461028a57806318160ddd1461029457806323b872dd146102b2578063253b5d6f146102e2576101fb565b806303807ee51461020057806306fdde031461021e578063095ea7b31461023c5780630c570c861461026c575b600080fd5b61020861065e565b6040516102159190612ee6565b60405180910390f35b610226610664565b6040516102339190612b64565b60405180910390f35b61025660048036038101906102519190612704565b6106f6565b6040516102639190612b49565b60405180910390f35b610274610719565b6040516102819190612b49565b60405180910390f35b610292610781565b005b61029c6109ab565b6040516102a99190612ee6565b60405180910390f35b6102cc60048036038101906102c791906126b1565b6109b5565b6040516102d99190612b49565b60405180910390f35b6102ea6109e4565b6040516102f79190612ee6565b60405180910390f35b6103086109ea565b6040516103159190612f01565b60405180910390f35b6103266109f3565b005b610342600480360381019061033d9190612704565b610af0565b60405161034f9190612b49565b60405180910390f35b610372600480360381019061036d9190612744565b610b27565b005b61037c610b3b565b6040516103899190612b49565b60405180910390f35b61039a610ba3565b6040516103a79190612b49565b60405180910390f35b6103ca60048036038101906103c59190612644565b610bb6565b6040516103d79190612ee6565b60405180910390f35b6103e8610bfe565b005b61040460048036038101906103ff9190612704565b610c12565b005b61040e610c32565b60405161041b9190612ee6565b60405180910390f35b61042c610c38565b6040516104399190612b2e565b60405180910390f35b61045c60048036038101906104579190612644565b610c62565b6040516104699190612ee6565b60405180910390f35b61047a610d34565b6040516104879190612b64565b60405180910390f35b6104aa60048036038101906104a59190612644565b610dc6565b6040516104b79190612ee6565b60405180910390f35b6104da60048036038101906104d59190612644565b610ecc565b005b6104f660048036038101906104f19190612704565b610f2f565b6040516105039190612b49565b60405180910390f35b61052660048036038101906105219190612704565b610fa6565b6040516105339190612b49565b60405180910390f35b610544610fc9565b6040516105519190612ee6565b60405180910390f35b610574600480360381019061056f9190612644565b610fcf565b005b61057e611032565b60405161058b9190612ee6565b60405180910390f35b6105ae60048036038101906105a99190612671565b611038565b6040516105bb9190612ee6565b60405180910390f35b6105de60048036038101906105d99190612644565b6110bf565b6040516105eb9190612b49565b60405180910390f35b6105fc6110df565b6040516106099190612ee6565b60405180910390f35b61062c60048036038101906106279190612644565b6110e5565b005b61064860048036038101906106439190612644565b611169565b6040516106559190612b49565b60405180910390f35b600d5481565b606060038054610673906130d5565b80601f016020809104026020016040519081016040528092919081815260200182805461069f906130d5565b80156106ec5780601f106106c1576101008083540402835291602001916106ec565b820191906000526020600020905b8154815290600101906020018083116106cf57829003601f168201915b5050505050905090565b600080610701611189565b905061070e818585611191565b600191505092915050565b6000806000368080601f016020809104026020016040519081016040528093929190818152602001838380828437600081840152601f19601f82011690508083019250505050505050905060648151141561077857600191505061077e565b60009150505b90565b61078961135c565b600061079430610bb6565b9050600081116107d9576040517f08c379a00000000000000000000000000000000000000000000000000000000081526004016107d090612da6565b60405180910390fd5b6000610803600a6107f5600b54856113ac90919063ffffffff16565b6113c290919063ffffffff16565b905060008111610848576040517f08c379a000000000000000000000000000000000000000000000000000000000815260040161083f90612cc6565b60405180910390fd5b6000610872600a610864600d54866113ac90919063ffffffff16565b6113c290919063ffffffff16565b9050600081116108b7576040517f08c379a00000000000000000000000000000000000000000000000000000000081526004016108ae90612d46565b60405180910390fd5b6108cc82600f546113d890919063ffffffff16565b600f819055506108f1816b02df458b2c635dcf55e000006113d890919063ffffffff16565b6108f96109ab565b111561090e5761090930826113ee565b610960565b6b02df458b2c635dcf55e000006109236109ab565b111561095f5760006109516b02df458b2c635dcf55e000006109436109ab565b6115bc90919063ffffffff16565b905061095d30826113ee565b505b5b426009819055507fbb245b3c380b63918dc25ab2cc2e4b6939c4d58ffd95ea052b685a031e1ad297836040516109969190612ee6565b60405180910390a15050506109a96115d2565b565b6000600254905090565b6000806109c0611189565b90506109cd8582856115dc565b6109d8858585611668565b60019150509392505050565b60095481565b60006012905090565b6109fb61135c565b6000610a0633610dc6565b9050610a476040518060400160405280600781526020017f6f77696e673a20000000000000000000000000000000000000000000000000008152508261205a565b60008111610a8a576040517f08c379a0000000000000000000000000000000000000000000000000000000008152600401610a8190612d86565b60405180910390fd5b600f54600e60003373ffffffffffffffffffffffffffffffffffffffff1673ffffffffffffffffffffffffffffffffffffffff168152602001908152602001600020819055506000811115610ae557610ae4303383611668565b5b50610aee6115d2565b565b600080610afb611189565b9050610b1c818585610b0d8589611038565b610b179190612f38565b611191565b600191505092915050565b610b38610b32611189565b826113ee565b50565b6000806000368080601f016020809104026020016040519081016040528093929190818152602001838380828437600081840152601f19601f820116905080830192505050505050509050604481511415610b9a576001915050610ba0565b60009150505b90565b601260019054906101000a900460ff1681565b60008060008373ffffffffffffffffffffffffffffffffffffffff1673ffffffffffffffffffffffffffffffffffffffff168152602001908152602001600020549050919050565b610c066120f6565b610c106000612174565b565b610c2482610c1e611189565b836115dc565b610c2e82826113ee565b5050565b600a5481565b6000600560009054906101000a900473ffffffffffffffffffffffffffffffffffffffff16905090565b60008073ffffffffffffffffffffffffffffffffffffffff168273ffffffffffffffffffffffffffffffffffffffff161415610cd3576040517f08c379a0000000000000000000000000000000000000000000000000000000008152600401610cca90612de6565b60405180910390fd5b6000610cde83610dc6565b905060008111610d23576040517f08c379a0000000000000000000000000000000000000000000000000000000008152600401610d1a90612d86565b60405180910390fd5b610d2c83610dc6565b915050919050565b606060048054610d43906130d5565b80601f0160208091040260200160405190810160405280929190818152602001828054610d6f906130d5565b8015610dbc5780601f10610d9157610100808354040283529160200191610dbc565b820191906000526020600020905b815481529060010190602001808311610d9f57829003601f168201915b5050505050905090565b60008073ffffffffffffffffffffffffffffffffffffffff168273ffffffffffffffffffffffffffffffffffffffff161415610e37576040517f08c379a0000000000000000000000000000000000000000000000000000000008152600401610e2e90612de6565b60405180910390fd5b6000610e8d600e60008573ffffffffffffffffffffffffffffffffffffffff1673ffffffffffffffffffffffffffffffffffffffff16815260200190815260200160002054600f546115bc90919063ffffffff16565b9050610ec4670de0b6b3a7640000610eb683610ea887610bb6565b6113ac90919063ffffffff16565b6113c290919063ffffffff16565b915050919050565b610ed46120f6565b6001601360008373ffffffffffffffffffffffffffffffffffffffff1673ffffffffffffffffffffffffffffffffffffffff16815260200190815260200160002060006101000a81548160ff02191690831515021790555050565b600080610f3a611189565b90506000610f488286611038565b905083811015610f8d576040517f08c379a0000000000000000000000000000000000000000000000000000000008152600401610f8490612ec6565b60405180910390fd5b610f9a8286868403611191565b60019250505092915050565b600080610fb1611189565b9050610fbe818585611668565b600191505092915050565b600c5481565b610fd76120f6565b6001601460008373ffffffffffffffffffffffffffffffffffffffff1673ffffffffffffffffffffffffffffffffffffffff16815260200190815260200160002060006101000a81548160ff02191690831515021790555050565b600b5481565b6000600160008473ffffffffffffffffffffffffffffffffffffffff1673ffffffffffffffffffffffffffffffffffffffff16815260200190815260200160002060008373ffffffffffffffffffffffffffffffffffffffff1673ffffffffffffffffffffffffffffffffffffffff16815260200190815260200160002054905092915050565b60136020528060005260406000206000915054906101000a900460ff1681565b60085481565b6110ed6120f6565b600073ffffffffffffffffffffffffffffffffffffffff168173ffffffffffffffffffffffffffffffffffffffff16141561115d576040517f08c379a000000000000000000000000000000000000000000000000000000000815260040161115490612c26565b60405180910390fd5b61116681612174565b50565b60146020528060005260406000206000915054906101000a900460ff1681565b600033905090565b600073ffffffffffffffffffffffffffffffffffffffff168373ffffffffffffffffffffffffffffffffffffffff161415611201576040517f08c379a00000000000000000000000000000000000000000000000000000000081526004016111f890612e26565b60405180910390fd5b600073ffffffffffffffffffffffffffffffffffffffff168273ffffffffffffffffffffffffffffffffffffffff161415611271576040517f08c379a000000000000000000000000000000000000000000000000000000000815260040161126890612c46565b60405180910390fd5b80600160008573ffffffffffffffffffffffffffffffffffffffff1673ffffffffffffffffffffffffffffffffffffffff16815260200190815260200160002060008473ffffffffffffffffffffffffffffffffffffffff1673ffffffffffffffffffffffffffffffffffffffff168152602001908152602001600020819055508173ffffffffffffffffffffffffffffffffffffffff168373ffffffffffffffffffffffffffffffffffffffff167f8c5be1e5ebec7d5bd14f71427d1e84f3dd0314c0f7b2291e5b200ac8c7c3b9258360405161134f9190612ee6565b60405180910390a3505050565b600260065414156113a2576040517f08c379a000000000000000000000000000000000000000000000000000000000815260040161139990612e66565b60405180910390fd5b6002600681905550565b600081836113ba9190612fbf565b905092915050565b600081836113d09190612f8e565b905092915050565b600081836113e69190612f38565b905092915050565b600073ffffffffffffffffffffffffffffffffffffffff168273ffffffffffffffffffffffffffffffffffffffff16141561145e576040517f08c379a000000000000000000000000000000000000000000000000000000000815260040161145590612dc6565b60405180910390fd5b61146a8260008361223a565b60008060008473ffffffffffffffffffffffffffffffffffffffff1673ffffffffffffffffffffffffffffffffffffffff168152602001908152602001600020549050818110156114f0576040517f08c379a00000000000000000000000000000000000000000000000000000000081526004016114e790612c06565b60405180910390fd5b8181036000808573ffffffffffffffffffffffffffffffffffffffff1673ffffffffffffffffffffffffffffffffffffffff1681526020019081526020016000208190555081600260008282540392505081905550600073ffffffffffffffffffffffffffffffffffffffff168373ffffffffffffffffffffffffffffffffffffffff167fddf252ad1be2c89b69c2b068fc378daa952ba7f163c4a11628f55a4df523b3ef846040516115a39190612ee6565b60405180910390a36115b78360008461223f565b505050565b600081836115ca9190613019565b905092915050565b6001600681905550565b60006115e88484611038565b90507fffffffffffffffffffffffffffffffffffffffffffffffffffffffffffffffff81146116625781811015611654576040517f08c379a000000000000000000000000000000000000000000000000000000000815260040161164b90612c86565b60405180910390fd5b6116618484848403611191565b5b50505050565b600073ffffffffffffffffffffffffffffffffffffffff168373ffffffffffffffffffffffffffffffffffffffff1614156116d8576040517f08c379a00000000000000000000000000000000000000000000000000000000081526004016116cf90612c66565b60405180910390fd5b600073ffffffffffffffffffffffffffffffffffffffff168273ffffffffffffffffffffffffffffffffffffffff161415611748576040517f08c379a000000000000000000000000000000000000000000000000000000000815260040161173f90612ea6565b60405180910390fd5b6000811161178b576040517f08c379a000000000000000000000000000000000000000000000000000000000815260040161178290612e46565b60405180910390fd5b6000600854116117d0576040517f08c379a00000000000000000000000000000000000000000000000000000000081526004016117c790612d06565b60405180910390fd5b600060095411611815576040517f08c379a000000000000000000000000000000000000000000000000000000000815260040161180c90612e86565b60405180910390fd5b600061182084610bb6565b9050600760009054906101000a900473ffffffffffffffffffffffffffffffffffffffff1673ffffffffffffffffffffffffffffffffffffffff168473ffffffffffffffffffffffffffffffffffffffff1614806118ab57506118a76064611899600161188b6109ab565b6113ac90919063ffffffff16565b6113c290919063ffffffff16565b8111155b806118ff5750601360008473ffffffffffffffffffffffffffffffffffffffff1673ffffffffffffffffffffffffffffffffffffffff16815260200190815260200160002060009054906101000a900460ff165b806119535750601360008573ffffffffffffffffffffffffffffffffffffffff1673ffffffffffffffffffffffffffffffffffffffff16815260200190815260200160002060009054906101000a900460ff165b806119a75750601460003373ffffffffffffffffffffffffffffffffffffffff1673ffffffffffffffffffffffffffffffffffffffff16815260200190815260200160002060009054906101000a900460ff165b6119e6576040517f08c379a00000000000000000000000000000000000000000000000000000000081526004016119dd90612d26565b60405180910390fd5b611a156103e8611a0760056119f96109ab565b6113ac90919063ffffffff16565b6113c290919063ffffffff16565b82111580611a705750600760009054906101000a900473ffffffffffffffffffffffffffffffffffffffff1673ffffffffffffffffffffffffffffffffffffffff168473ffffffffffffffffffffffffffffffffffffffff16145b80611ac45750601360008473ffffffffffffffffffffffffffffffffffffffff1673ffffffffffffffffffffffffffffffffffffffff16815260200190815260200160002060009054906101000a900460ff165b80611b185750601360008573ffffffffffffffffffffffffffffffffffffffff1673ffffffffffffffffffffffffffffffffffffffff16815260200190815260200160002060009054906101000a900460ff165b80611b6c5750601460003373ffffffffffffffffffffffffffffffffffffffff1673ffffffffffffffffffffffffffffffffffffffff16815260200190815260200160002060009054906101000a900460ff165b611bab576040517f08c379a0000000000000000000000000000000000000000000000000000000008152600401611ba290612ce6565b60405180910390fd5b611c2960405180606001604052806026815260200161377960269139601360008773ffffffffffffffffffffffffffffffffffffffff1673ffffffffffffffffffffffffffffffffffffffff16815260200190815260200160002060009054906101000a900460ff168015611c245750611c23610b3b565b5b612244565b600060019050601360008673ffffffffffffffffffffffffffffffffffffffff1673ffffffffffffffffffffffffffffffffffffffff16815260200190815260200160002060009054906101000a900460ff168015611c8c5750611c8b610b3b565b5b15611cd457611ccf6040518060400160405280600781526020017f79657320627579000000000000000000000000000000000000000000000000008152506122e0565b600090505b611cdc610c38565b73ffffffffffffffffffffffffffffffffffffffff168573ffffffffffffffffffffffffffffffffffffffff1614158015611d4a5750611d1a610c38565b73ffffffffffffffffffffffffffffffffffffffff168473ffffffffffffffffffffffffffffffffffffffff1614155b8015611da45750600760009054906101000a900473ffffffffffffffffffffffffffffffffffffffff1673ffffffffffffffffffffffffffffffffffffffff168573ffffffffffffffffffffffffffffffffffffffff1614155b8015611dfe5750600760009054906101000a900473ffffffffffffffffffffffffffffffffffffffff1673ffffffffffffffffffffffffffffffffffffffff168473ffffffffffffffffffffffffffffffffffffffff1614155b1561204857611e1a6008546009546113d890919063ffffffff16565b4210611e2957611e28610781565b5b3073ffffffffffffffffffffffffffffffffffffffff168573ffffffffffffffffffffffffffffffffffffffff1614158015611e625750805b1561204757611ea56040518060400160405280600881526020017f7965732073656e640000000000000000000000000000000000000000000000008152506122e0565b6000611ecf6064611ec1600a54876113ac90919063ffffffff16565b6113c290919063ffffffff16565b9050611ee481856115bc90919063ffffffff16565b93506000611f10600a611f02600c54856113ac90919063ffffffff16565b6113c290919063ffffffff16565b90506000611f3c600a611f2e600b54866113ac90919063ffffffff16565b6113c290919063ffffffff16565b90506000611f68600a611f5a600d54876113ac90919063ffffffff16565b6113c290919063ffffffff16565b9050611f75893085612379565b611f8a82600f546113d890919063ffffffff16565b600f81905550600f54600e60008b73ffffffffffffffffffffffffffffffffffffffff1673ffffffffffffffffffffffffffffffffffffffff16815260200190815260200160002081905550600f54600e60008a73ffffffffffffffffffffffffffffffffffffffff1673ffffffffffffffffffffffffffffffffffffffff168152602001908152602001600020819055506b02df458b2c635dcf55e000006120316109ab565b11156120425761204130826113ee565b5b505050505b5b612053858585612379565b5050505050565b6120f28282604051602401612070929190612bb6565b6040516020818303038152906040527fb60e72cc000000000000000000000000000000000000000000000000000000007bffffffffffffffffffffffffffffffffffffffffffffffffffffffff19166020820180517bffffffffffffffffffffffffffffffffffffffffffffffffffffffff83818316178352505050506125f1565b5050565b6120fe611189565b73ffffffffffffffffffffffffffffffffffffffff1661211c610c38565b73ffffffffffffffffffffffffffffffffffffffff1614612172576040517f08c379a000000000000000000000000000000000000000000000000000000000815260040161216990612d66565b60405180910390fd5b565b6000600560009054906101000a900473ffffffffffffffffffffffffffffffffffffffff16905081600560006101000a81548173ffffffffffffffffffffffffffffffffffffffff021916908373ffffffffffffffffffffffffffffffffffffffff1602179055508173ffffffffffffffffffffffffffffffffffffffff168173ffffffffffffffffffffffffffffffffffffffff167f8be0079c531659141344cd1fd0a4f28419497f9722a3daafe3b4186f6b6457e060405160405180910390a35050565b505050565b505050565b6122dc828260405160240161225a929190612b86565b6040516020818303038152906040527fc3b55635000000000000000000000000000000000000000000000000000000007bffffffffffffffffffffffffffffffffffffffffffffffffffffffff19166020820180517bffffffffffffffffffffffffffffffffffffffffffffffffffffffff83818316178352505050506125f1565b5050565b612376816040516024016122f49190612b64565b6040516020818303038152906040527f41304fac000000000000000000000000000000000000000000000000000000007bffffffffffffffffffffffffffffffffffffffffffffffffffffffff19166020820180517bffffffffffffffffffffffffffffffffffffffffffffffffffffffff83818316178352505050506125f1565b50565b600073ffffffffffffffffffffffffffffffffffffffff168373ffffffffffffffffffffffffffffffffffffffff1614156123e9576040517f08c379a00000000000000000000000000000000000000000000000000000000081526004016123e090612e06565b60405180910390fd5b600073ffffffffffffffffffffffffffffffffffffffff168273ffffffffffffffffffffffffffffffffffffffff161415612459576040517f08c379a000000000000000000000000000000000000000000000000000000000815260040161245090612be6565b60405180910390fd5b61246483838361223a565b60008060008573ffffffffffffffffffffffffffffffffffffffff1673ffffffffffffffffffffffffffffffffffffffff168152602001908152602001600020549050818110156124ea576040517f08c379a00000000000000000000000000000000000000000000000000000000081526004016124e190612ca6565b60405180910390fd5b8181036000808673ffffffffffffffffffffffffffffffffffffffff1673ffffffffffffffffffffffffffffffffffffffff16815260200190815260200160002081905550816000808573ffffffffffffffffffffffffffffffffffffffff1673ffffffffffffffffffffffffffffffffffffffff168152602001908152602001600020600082825401925050819055508273ffffffffffffffffffffffffffffffffffffffff168473ffffffffffffffffffffffffffffffffffffffff167fddf252ad1be2c89b69c2b068fc378daa952ba7f163c4a11628f55a4df523b3ef846040516125d89190612ee6565b60405180910390a36125eb84848461223f565b50505050565b60008151905060006a636f6e736f6c652e6c6f679050602083016000808483855afa5050505050565b6000813590506126298161374a565b92915050565b60008135905061263e81613761565b92915050565b60006020828403121561265a57612659613194565b5b60006126688482850161261a565b91505092915050565b6000806040838503121561268857612687613194565b5b60006126968582860161261a565b92505060206126a78582860161261a565b9150509250929050565b6000806000606084860312156126ca576126c9613194565b5b60006126d88682870161261a565b93505060206126e98682870161261a565b92505060406126fa8682870161262f565b9150509250925092565b6000806040838503121561271b5761271a613194565b5b60006127298582860161261a565b925050602061273a8582860161262f565b9150509250929050565b60006020828403121561275a57612759613194565b5b60006127688482850161262f565b91505092915050565b61277a8161304d565b82525050565b6127898161305f565b82525050565b600061279a82612f1c565b6127a48185612f27565b93506127b48185602086016130a2565b6127bd81613199565b840191505092915050565b60006127d5602383612f27565b91506127e0826131aa565b604082019050919050565b60006127f8602283612f27565b9150612803826131f9565b604082019050919050565b600061281b602683612f27565b915061282682613248565b604082019050919050565b600061283e602283612f27565b915061284982613297565b604082019050919050565b6000612861602483612f27565b915061286c826132e6565b604082019050919050565b6000612884601d83612f27565b915061288f82613335565b602082019050919050565b60006128a7602683612f27565b91506128b28261335e565b604082019050919050565b60006128ca601a83612f27565b91506128d5826133ad565b602082019050919050565b60006128ed602283612f27565b91506128f8826133d6565b604082019050919050565b6000612910601883612f27565b915061291b82613425565b602082019050919050565b6000612933602083612f27565b915061293e8261344e565b602082019050919050565b6000612956601883612f27565b915061296182613477565b602082019050919050565b6000612979602083612f27565b9150612984826134a0565b602082019050919050565b600061299c601a83612f27565b91506129a7826134c9565b602082019050919050565b60006129bf601583612f27565b91506129ca826134f2565b602082019050919050565b60006129e2602183612f27565b91506129ed8261351b565b604082019050919050565b6000612a05601d83612f27565b9150612a108261356a565b602082019050919050565b6000612a28602583612f27565b9150612a3382613593565b604082019050919050565b6000612a4b602483612f27565b9150612a56826135e2565b604082019050919050565b6000612a6e601483612f27565b9150612a7982613631565b602082019050919050565b6000612a91601f83612f27565b9150612a9c8261365a565b602082019050919050565b6000612ab4601e83612f27565b9150612abf82613683565b602082019050919050565b6000612ad7602283612f27565b9150612ae2826136ac565b604082019050919050565b6000612afa602583612f27565b9150612b05826136fb565b604082019050919050565b612b198161308b565b82525050565b612b2881613095565b82525050565b6000602082019050612b436000830184612771565b92915050565b6000602082019050612b5e6000830184612780565b92915050565b60006020820190508181036000830152612b7e818461278f565b905092915050565b60006040820190508181036000830152612ba0818561278f565b9050612baf6020830184612780565b9392505050565b60006040820190508181036000830152612bd0818561278f565b9050612bdf6020830184612b10565b9392505050565b60006020820190508181036000830152612bff816127c8565b9050919050565b60006020820190508181036000830152612c1f816127eb565b9050919050565b60006020820190508181036000830152612c3f8161280e565b9050919050565b60006020820190508181036000830152612c5f81612831565b9050919050565b60006020820190508181036000830152612c7f81612854565b9050919050565b60006020820190508181036000830152612c9f81612877565b9050919050565b60006020820190508181036000830152612cbf8161289a565b9050919050565b60006020820190508181036000830152612cdf816128bd565b9050919050565b60006020820190508181036000830152612cff816128e0565b9050919050565b60006020820190508181036000830152612d1f81612903565b9050919050565b60006020820190508181036000830152612d3f81612926565b9050919050565b60006020820190508181036000830152612d5f81612949565b9050919050565b60006020820190508181036000830152612d7f8161296c565b9050919050565b60006020820190508181036000830152612d9f8161298f565b9050919050565b60006020820190508181036000830152612dbf816129b2565b9050919050565b60006020820190508181036000830152612ddf816129d5565b9050919050565b60006020820190508181036000830152612dff816129f8565b9050919050565b60006020820190508181036000830152612e1f81612a1b565b9050919050565b60006020820190508181036000830152612e3f81612a3e565b9050919050565b60006020820190508181036000830152612e5f81612a61565b9050919050565b60006020820190508181036000830152612e7f81612a84565b9050919050565b60006020820190508181036000830152612e9f81612aa7565b9050919050565b60006020820190508181036000830152612ebf81612aca565b9050919050565b60006020820190508181036000830152612edf81612aed565b9050919050565b6000602082019050612efb6000830184612b10565b92915050565b6000602082019050612f166000830184612b1f565b92915050565b600081519050919050565b600082825260208201905092915050565b6000612f438261308b565b9150612f4e8361308b565b9250827fffffffffffffffffffffffffffffffffffffffffffffffffffffffffffffffff03821115612f8357612f82613107565b5b828201905092915050565b6000612f998261308b565b9150612fa48361308b565b925082612fb457612fb3613136565b5b828204905092915050565b6000612fca8261308b565b9150612fd58361308b565b9250817fffffffffffffffffffffffffffffffffffffffffffffffffffffffffffffffff048311821515161561300e5761300d613107565b5b828202905092915050565b60006130248261308b565b915061302f8361308b565b92508282101561304257613041613107565b5b828203905092915050565b60006130588261306b565b9050919050565b60008115159050919050565b600073ffffffffffffffffffffffffffffffffffffffff82169050919050565b6000819050919050565b600060ff82169050919050565b60005b838110156130c05780820151818401526020810190506130a5565b838111156130cf576000848401525b50505050565b600060028204905060018216806130ed57607f821691505b6020821081141561310157613100613165565b5b50919050565b7f4e487b7100000000000000000000000000000000000000000000000000000000600052601160045260246000fd5b7f4e487b7100000000000000000000000000000000000000000000000000000000600052601260045260246000fd5b7f4e487b7100000000000000000000000000000000000000000000000000000000600052602260045260246000fd5b600080fd5b6000601f19601f8301169050919050565b7f45524332303a207472616e7366657220746f20746865207a65726f206164647260008201527f6573730000000000000000000000000000000000000000000000000000000000602082015250565b7f45524332303a206275726e20616d6f756e7420657863656564732062616c616e60008201527f6365000000000000000000000000000000000000000000000000000000000000602082015250565b7f4f776e61626c653a206e6577206f776e657220697320746865207a65726f206160008201527f6464726573730000000000000000000000000000000000000000000000000000602082015250565b7f45524332303a20617070726f766520746f20746865207a65726f20616464726560008201527f7373000000000000000000000000000000000000000000000000000000000000602082015250565b7f4d4953533a207472616e736665722066726f6d20746865207a65726f2061646460008201527f7265737300000000000000000000000000000000000000000000000000000000602082015250565b7f45524332303a20696e73756666696369656e7420616c6c6f77616e6365000000600082015250565b7f45524332303a207472616e7366657220616d6f756e742065786365656473206260008201527f616c616e63650000000000000000000000000000000000000000000000000000602082015250565b7f4d4953533a20696e76616c696420726577617264416d6f756e74000000000000600082015250565b7f4d4953533a204578636565647320302e3525206f6620746f74616c207375707060008201527f6c79000000000000000000000000000000000000000000000000000000000000602082015250565b7f4d4953533a20696e76616c69642074617820706572696f640000000000000000600082015250565b7f4d4953533a2045786365656473203125206f6620746f74616c20737570706c79600082015250565b7f4d4953533a20696e76616c6964206275726e416d6f756e740000000000000000600082015250565b7f4f776e61626c653a2063616c6c6572206973206e6f7420746865206f776e6572600082015250565b7f4d4953533a20696e76616c696420726577617264734f77696e67000000000000600082015250565b7f4d4953533a20696e76616c69642062616c616e63650000000000000000000000600082015250565b7f45524332303a206275726e2066726f6d20746865207a65726f2061646472657360008201527f7300000000000000000000000000000000000000000000000000000000000000602082015250565b7f4d4953533a20696e76616c6964206163636f756e742061646472657373000000600082015250565b7f45524332303a207472616e736665722066726f6d20746865207a65726f20616460008201527f6472657373000000000000000000000000000000000000000000000000000000602082015250565b7f45524332303a20617070726f76652066726f6d20746865207a65726f2061646460008201527f7265737300000000000000000000000000000000000000000000000000000000602082015250565b7f4d4953533a20696e76616c696420616d6f756e74000000000000000000000000600082015250565b7f5265656e7472616e637947756172643a207265656e7472616e742063616c6c00600082015250565b7f4d4953533a20696e76616c6964206c61737454617854696d657374616d700000600082015250565b7f4d4953533a207472616e7366657220746f20746865207a65726f20616464726560008201527f7373000000000000000000000000000000000000000000000000000000000000602082015250565b7f45524332303a2064656372656173656420616c6c6f77616e63652062656c6f7760008201527f207a65726f000000000000000000000000000000000000000000000000000000602082015250565b6137538161304d565b811461375e57600080fd5b50565b61376a8161308b565b811461377557600080fd5b5056fe2873656e646572203d3d20756e69737761705632506169722920262620697342757928293a20a2646970667358221220bd20731012f6f18143e25df86603f3a05d480602c2e01c2d8a2b38b1d14eb9ba64736f6c63430008050033",
  "linkReferences": {},
  "deployedLinkReferences": {}
}