{
  "_format": "hh-sol-artifact-1",
  "contractName": "BuyBackToken",
  "sourceName": "Contracts/BuyBackToken.sol",
  "abi": [
    {
      "inputs": [
        {
          "internalType": "string",
          "name": "_n",
          "type": "string"
        },
        {
          "internalType": "string",
          "name": "_s",
          "type": "string"
        },
        {
          "internalType": "uint8",
          "name": "_d",
          "type": "uint8"
        },
        {
          "internalType": "uint256",
          "name": "_ts",
          "type": "uint256"
        },
        {
          "internalType": "uint256",
          "name": "_tax",
          "type": "uint256"
        },
        {
          "internalType": "uint256",
          "name": "_bb",
          "type": "uint256"
        },
        {
          "internalType": "uint256",
          "name": "_mkt",
          "type": "uint256"
        },
        {
          "internalType": "address",
          "name": "_ma",
          "type": "address"
        }
      ],
      "stateMutability": "nonpayable",
      "type": "constructor"
    },
    {
      "anonymous": false,
      "inputs": [
        {
          "indexed": true,
          "internalType": "address",
          "name": "owner",
          "type": "address"
        },
        {
          "indexed": true,
          "internalType": "address",
          "name": "spender",
          "type": "address"
        },
        {
          "indexed": false,
          "internalType": "uint256",
          "name": "value",
          "type": "uint256"
        }
      ],
      "name": "Approval",
      "type": "event"
    },
    {
      "anonymous": false,
      "inputs": [
        {
          "indexed": false,
          "internalType": "bool",
          "name": "enabled",
          "type": "bool"
        }
      ],
      "name": "BuyBackEnabledUpdated",
      "type": "event"
    },
    {
      "anonymous": false,
      "inputs": [
        {
          "indexed": true,
          "internalType": "address",
          "name": "previousOwner",
          "type": "address"
        },
        {
          "indexed": true,
          "internalType": "address",
          "name": "newOwner",
          "type": "address"
        }
      ],
      "name": "OwnershipTransferred",
      "type": "event"
    },
    {
      "anonymous": false,
      "inputs": [
        {
          "indexed": false,
          "internalType": "uint256",
          "name": "tokenAmount",
          "type": "uint256"
        }
      ],
      "name": "RewardLiquidityProviders",
      "type": "event"
    },
    {
      "anonymous": false,
      "inputs": [
        {
          "indexed": false,
          "internalType": "uint256",
          "name": "tokensSwapped",
          "type": "uint256"
        },
        {
          "indexed": false,
          "internalType": "uint256",
          "name": "ethReceived",
          "type": "uint256"
        },
        {
          "indexed": false,
          "internalType": "uint256",
          "name": "tokensIntoLiqudity",
          "type": "uint256"
        }
      ],
      "name": "SwapAndLiquify",
      "type": "event"
    },
    {
      "anonymous": false,
      "inputs": [
        {
          "indexed": false,
          "internalType": "bool",
          "name": "enabled",
          "type": "bool"
        }
      ],
      "name": "SwapAndLiquifyEnabledUpdated",
      "type": "event"
    },
    {
      "anonymous": false,
      "inputs": [
        {
          "indexed": false,
          "internalType": "uint256",
          "name": "amountIn",
          "type": "uint256"
        },
        {
          "indexed": false,
          "internalType": "address[]",
          "name": "path",
          "type": "address[]"
        }
      ],
      "name": "SwapETHForTokens",
      "type": "event"
    },
    {
      "anonymous": false,
      "inputs": [
        {
          "indexed": false,
          "internalType": "uint256",
          "name": "amountIn",
          "type": "uint256"
        },
        {
          "indexed": false,
          "internalType": "address[]",
          "name": "path",
          "type": "address[]"
        }
      ],
      "name": "SwapTokensForETH",
      "type": "event"
    },
    {
      "anonymous": false,
      "inputs": [
        {
          "indexed": true,
          "internalType": "address",
          "name": "from",
          "type": "address"
        },
        {
          "indexed": true,
          "internalType": "address",
          "name": "to",
          "type": "address"
        },
        {
          "indexed": false,
          "internalType": "uint256",
          "name": "value",
          "type": "uint256"
        }
      ],
      "name": "Transfer",
      "type": "event"
    },
    {
      "inputs": [],
      "name": "_maxTxAmount",
      "outputs": [
        {
          "internalType": "uint256",
          "name": "",
          "type": "uint256"
        }
      ],
      "stateMutability": "view",
      "type": "function"
    },
    {
      "inputs": [],
      "name": "_taxFee",
      "outputs": [
        {
          "internalType": "uint256",
          "name": "",
          "type": "uint256"
        }
      ],
      "stateMutability": "view",
      "type": "function"
    },
    {
      "inputs": [
        {
          "internalType": "address",
          "name": "owner",
          "type": "address"
        },
        {
          "internalType": "address",
          "name": "spender",
          "type": "address"
        }
      ],
      "name": "allowance",
      "outputs": [
        {
          "internalType": "uint256",
          "name": "",
          "type": "uint256"
        }
      ],
      "stateMutability": "view",
      "type": "function"
    },
    {
      "inputs": [
        {
          "internalType": "address",
          "name": "spender",
          "type": "address"
        },
        {
          "internalType": "uint256",
          "name": "amount",
          "type": "uint256"
        }
      ],
      "name": "approve",
      "outputs": [
        {
          "internalType": "bool",
          "name": "",
          "type": "bool"
        }
      ],
      "stateMutability": "nonpayable",
      "type": "function"
    },
    {
      "inputs": [
        {
          "internalType": "address",
          "name": "account",
          "type": "address"
        }
      ],
      "name": "balanceOf",
      "outputs": [
        {
          "internalType": "uint256",
          "name": "",
          "type": "uint256"
        }
      ],
      "stateMutability": "view",
      "type": "function"
    },
    {
      "inputs": [],
      "name": "buyBackEnabled",
      "outputs": [
        {
          "internalType": "bool",
          "name": "",
          "type": "bool"
        }
      ],
      "stateMutability": "view",
      "type": "function"
    },
    {
      "inputs": [],
      "name": "buyBackUpperLimitAmount",
      "outputs": [
        {
          "internalType": "uint256",
          "name": "",
          "type": "uint256"
        }
      ],
      "stateMutability": "view",
      "type": "function"
    },
    {
      "inputs": [],
      "name": "buybackFee",
      "outputs": [
        {
          "internalType": "uint256",
          "name": "",
          "type": "uint256"
        }
      ],
      "stateMutability": "view",
      "type": "function"
    },
    {
      "inputs": [],
      "name": "deadAddress",
      "outputs": [
        {
          "internalType": "address",
          "name": "",
          "type": "address"
        }
      ],
      "stateMutability": "view",
      "type": "function"
    },
    {
      "inputs": [],
      "name": "decimals",
      "outputs": [
        {
          "internalType": "uint8",
          "name": "",
          "type": "uint8"
        }
      ],
      "stateMutability": "view",
      "type": "function"
    },
    {
      "inputs": [
        {
          "internalType": "address",
          "name": "spender",
          "type": "address"
        },
        {
          "internalType": "uint256",
          "name": "subtractedValue",
          "type": "uint256"
        }
      ],
      "name": "decreaseAllowance",
      "outputs": [
        {
          "internalType": "bool",
          "name": "",
          "type": "bool"
        }
      ],
      "stateMutability": "nonpayable",
      "type": "function"
    },
    {
      "inputs": [
        {
          "internalType": "uint256",
          "name": "tAmount",
          "type": "uint256"
        }
      ],
      "name": "deliver",
      "outputs": [],
      "stateMutability": "nonpayable",
      "type": "function"
    },
    {
      "inputs": [
        {
          "internalType": "address",
          "name": "account",
          "type": "address"
        }
      ],
      "name": "excludeFromFee",
      "outputs": [],
      "stateMutability": "nonpayable",
      "type": "function"
    },
    {
      "inputs": [
        {
          "internalType": "address",
          "name": "account",
          "type": "address"
        }
      ],
      "name": "excludeFromReward",
      "outputs": [],
      "stateMutability": "nonpayable",
      "type": "function"
    },
    {
      "inputs": [],
      "name": "getTime",
      "outputs": [
        {
          "internalType": "uint256",
          "name": "",
          "type": "uint256"
        }
      ],
      "stateMutability": "view",
      "type": "function"
    },
    {
      "inputs": [],
      "name": "getUnlockTime",
      "outputs": [
        {
          "internalType": "uint256",
          "name": "",
          "type": "uint256"
        }
      ],
      "stateMutability": "view",
      "type": "function"
    },
    {
      "inputs": [
        {
          "internalType": "address",
          "name": "account",
          "type": "address"
        }
      ],
      "name": "includeInFee",
      "outputs": [],
      "stateMutability": "nonpayable",
      "type": "function"
    },
    {
      "inputs": [
        {
          "internalType": "address",
          "name": "account",
          "type": "address"
        }
      ],
      "name": "includeInReward",
      "outputs": [],
      "stateMutability": "nonpayable",
      "type": "function"
    },
    {
      "inputs": [
        {
          "internalType": "address",
          "name": "spender",
          "type": "address"
        },
        {
          "internalType": "uint256",
          "name": "addedValue",
          "type": "uint256"
        }
      ],
      "name": "increaseAllowance",
      "outputs": [
        {
          "internalType": "bool",
          "name": "",
          "type": "bool"
        }
      ],
      "stateMutability": "nonpayable",
      "type": "function"
    },
    {
      "inputs": [
        {
          "internalType": "address",
          "name": "account",
          "type": "address"
        }
      ],
      "name": "isExcludedFromFee",
      "outputs": [
        {
          "internalType": "bool",
          "name": "",
          "type": "bool"
        }
      ],
      "stateMutability": "view",
      "type": "function"
    },
    {
      "inputs": [
        {
          "internalType": "address",
          "name": "account",
          "type": "address"
        }
      ],
      "name": "isExcludedFromReward",
      "outputs": [
        {
          "internalType": "bool",
          "name": "",
          "type": "bool"
        }
      ],
      "stateMutability": "view",
      "type": "function"
    },
    {
      "inputs": [
        {
          "internalType": "uint256",
          "name": "time",
          "type": "uint256"
        }
      ],
      "name": "lock",
      "outputs": [],
      "stateMutability": "nonpayable",
      "type": "function"
    },
    {
      "inputs": [],
      "name": "marketingAddress",
      "outputs": [
        {
          "internalType": "address payable",
          "name": "",
          "type": "address"
        }
      ],
      "stateMutability": "view",
      "type": "function"
    },
    {
      "inputs": [],
      "name": "marketingFee",
      "outputs": [
        {
          "internalType": "uint256",
          "name": "",
          "type": "uint256"
        }
      ],
      "stateMutability": "view",
      "type": "function"
    },
    {
      "inputs": [],
      "name": "minimumTokensBeforeSwapAmount",
      "outputs": [
        {
          "internalType": "uint256",
          "name": "",
          "type": "uint256"
        }
      ],
      "stateMutability": "view",
      "type": "function"
    },
    {
      "inputs": [],
      "name": "name",
      "outputs": [
        {
          "internalType": "string",
          "name": "",
          "type": "string"
        }
      ],
      "stateMutability": "view",
      "type": "function"
    },
    {
      "inputs": [],
      "name": "owner",
      "outputs": [
        {
          "internalType": "address",
          "name": "",
          "type": "address"
        }
      ],
      "stateMutability": "view",
      "type": "function"
    },
    {
      "inputs": [
        {
          "internalType": "bool",
          "name": "_presale",
          "type": "bool"
        }
      ],
      "name": "presale",
      "outputs": [],
      "stateMutability": "nonpayable",
      "type": "function"
    },
    {
      "inputs": [
        {
          "internalType": "uint256",
          "name": "tAmount",
          "type": "uint256"
        },
        {
          "internalType": "bool",
          "name": "deductTransferFee",
          "type": "bool"
        }
      ],
      "name": "reflectionFromToken",
      "outputs": [
        {
          "internalType": "uint256",
          "name": "",
          "type": "uint256"
        }
      ],
      "stateMutability": "view",
      "type": "function"
    },
    {
      "inputs": [],
      "name": "renounceOwnership",
      "outputs": [],
      "stateMutability": "nonpayable",
      "type": "function"
    },
    {
      "inputs": [
        {
          "internalType": "bool",
          "name": "_enabled",
          "type": "bool"
        }
      ],
      "name": "setBuyBackEnabled",
      "outputs": [],
      "stateMutability": "nonpayable",
      "type": "function"
    },
    {
      "inputs": [
        {
          "internalType": "uint256",
          "name": "_buybackFee",
          "type": "uint256"
        }
      ],
      "name": "setBuybackFee",
      "outputs": [],
      "stateMutability": "nonpayable",
      "type": "function"
    },
    {
      "inputs": [
        {
          "internalType": "uint256",
          "name": "buyBackLimit",
          "type": "uint256"
        }
      ],
      "name": "setBuybackUpperLimit",
      "outputs": [],
      "stateMutability": "nonpayable",
      "type": "function"
    },
    {
      "inputs": [
        {
          "internalType": "address",
          "name": "_marketingAddress",
          "type": "address"
        }
      ],
      "name": "setMarketingAddress",
      "outputs": [],
      "stateMutability": "nonpayable",
      "type": "function"
    },
    {
      "inputs": [
        {
          "internalType": "uint256",
          "name": "_marketingFee",
          "type": "uint256"
        }
      ],
      "name": "setMarketingFee",
      "outputs": [],
      "stateMutability": "nonpayable",
      "type": "function"
    },
    {
      "inputs": [
        {
          "internalType": "uint256",
          "name": "maxTxAmount",
          "type": "uint256"
        }
      ],
      "name": "setMaxTxAmount",
      "outputs": [],
      "stateMutability": "nonpayable",
      "type": "function"
    },
    {
      "inputs": [
        {
          "internalType": "uint256",
          "name": "_minimumTokensBeforeSwap",
          "type": "uint256"
        }
      ],
      "name": "setNumTokensSellToAddToLiquidity",
      "outputs": [],
      "stateMutability": "nonpayable",
      "type": "function"
    },
    {
      "inputs": [
        {
          "internalType": "bool",
          "name": "_enabled",
          "type": "bool"
        }
      ],
      "name": "setSwapAndLiquifyEnabled",
      "outputs": [],
      "stateMutability": "nonpayable",
      "type": "function"
    },
    {
      "inputs": [
        {
          "internalType": "uint256",
          "name": "taxFee",
          "type": "uint256"
        }
      ],
      "name": "setTaxFee",
      "outputs": [],
      "stateMutability": "nonpayable",
      "type": "function"
    },
    {
      "inputs": [
        {
          "internalType": "address",
          "name": "_uniswapV2Pair",
          "type": "address"
        }
      ],
      "name": "setUniswapV2Pair",
      "outputs": [],
      "stateMutability": "nonpayable",
      "type": "function"
    },
    {
      "inputs": [],
      "name": "swapAndLiquifyEnabled",
      "outputs": [
        {
          "internalType": "bool",
          "name": "",
          "type": "bool"
        }
      ],
      "stateMutability": "view",
      "type": "function"
    },
    {
      "inputs": [],
      "name": "symbol",
      "outputs": [
        {
          "internalType": "string",
          "name": "",
          "type": "string"
        }
      ],
      "stateMutability": "view",
      "type": "function"
    },
    {
      "inputs": [
        {
          "internalType": "uint256",
          "name": "rAmount",
          "type": "uint256"
        }
      ],
      "name": "tokenFromReflection",
      "outputs": [
        {
          "internalType": "uint256",
          "name": "",
          "type": "uint256"
        }
      ],
      "stateMutability": "view",
      "type": "function"
    },
    {
      "inputs": [],
      "name": "totalFees",
      "outputs": [
        {
          "internalType": "uint256",
          "name": "",
          "type": "uint256"
        }
      ],
      "stateMutability": "view",
      "type": "function"
    },
    {
      "inputs": [],
      "name": "totalSupply",
      "outputs": [
        {
          "internalType": "uint256",
          "name": "",
          "type": "uint256"
        }
      ],
      "stateMutability": "view",
      "type": "function"
    },
    {
      "inputs": [
        {
          "internalType": "address",
          "name": "recipient",
          "type": "address"
        },
        {
          "internalType": "uint256",
          "name": "amount",
          "type": "uint256"
        }
      ],
      "name": "transfer",
      "outputs": [
        {
          "internalType": "bool",
          "name": "",
          "type": "bool"
        }
      ],
      "stateMutability": "nonpayable",
      "type": "function"
    },
    {
      "inputs": [
        {
          "internalType": "address",
          "name": "sender",
          "type": "address"
        },
        {
          "internalType": "address",
          "name": "recipient",
          "type": "address"
        },
        {
          "internalType": "uint256",
          "name": "amount",
          "type": "uint256"
        }
      ],
      "name": "transferFrom",
      "outputs": [
        {
          "internalType": "bool",
          "name": "",
          "type": "bool"
        }
      ],
      "stateMutability": "nonpayable",
      "type": "function"
    },
    {
      "inputs": [
        {
          "internalType": "address",
          "name": "newOwner",
          "type": "address"
        }
      ],
      "name": "transferOwnership",
      "outputs": [],
      "stateMutability": "nonpayable",
      "type": "function"
    },
    {
      "inputs": [],
      "name": "uniswapV2Pair",
      "outputs": [
        {
          "internalType": "address",
          "name": "",
          "type": "address"
        }
      ],
      "stateMutability": "view",
      "type": "function"
    },
    {
      "inputs": [],
      "name": "uniswapV2Router",
      "outputs": [
        {
          "internalType": "contract IUniswapV2Router02",
          "name": "",
          "type": "address"
        }
      ],
      "stateMutability": "view",
      "type": "function"
    },
    {
      "inputs": [],
      "name": "unlock",
      "outputs": [],
      "stateMutability": "nonpayable",
      "type": "function"
    },
    {
      "stateMutability": "payable",
      "type": "receive"
    }
  ],
  "bytecode": "0x60c060405261dead73ffffffffffffffffffffffffffffffffffffffff1660809073ffffffffffffffffffffffffffffffffffffffff1660601b8152506001601e60156101000a81548160ff0219169083151502179055506001601e60166101000a81548160ff0219169083151502179055503480156200007f57600080fd5b506040516200738d3803806200738d8339818101604052810190620000a5919062000a95565b6000620000b76200078160201b60201c565b9050806000806101000a81548173ffffffffffffffffffffffffffffffffffffffff021916908373ffffffffffffffffffffffffffffffffffffffff1602179055508073ffffffffffffffffffffffffffffffffffffffff16600073ffffffffffffffffffffffffffffffffffffffff167f8be0079c531659141344cd1fd0a4f28419497f9722a3daafe3b4186f6b6457e060405160405180910390a35060058210156200019c576040517f08c379a0000000000000000000000000000000000000000000000000000000008152600401620001939062000cc0565b60405180910390fd5b87600e9080519060200190620001b4929190620008f0565b5086600f9080519060200190620001cd929190620008f0565b5085601060006101000a81548160ff021916908360ff160217905550601060009054906101000a900460ff16600a62000207919062000e6a565b8562000214919062000fa7565b600b81905550600b546000196200022c919062001130565b6000196200023b919062001008565b600c8190555080600460006101000a81548173ffffffffffffffffffffffffffffffffffffffff021916908373ffffffffffffffffffffffffffffffffffffffff16021790555073ee89c2e6462141356c580f97be3d5a35abc3b27e600360006101000a81548173ffffffffffffffffffffffffffffffffffffffff021916908373ffffffffffffffffffffffffffffffffffffffff160217905550836011819055506011546012819055508260158190555060155460168190555081601781905550601754601881905550818362000315919062000d7a565b6013819055506013546014819055506005601981905550620003646003620003506103e8600b546200078960201b62002c321790919060201c565b620007db60201b62002c7c1790919060201c565b601a81905550601a54601b81905550620003ab600262000397612710600b546200078960201b62002c321790919060201c565b620007db60201b62002c7c1790919060201c565b601c81905550670de0b6b3a7640000601d81905550600c5460056000620003d76200078160201b60201c565b73ffffffffffffffffffffffffffffffffffffffff1673ffffffffffffffffffffffffffffffffffffffff1681526020019081526020016000208190555060007310ed43c718714eb63d5aa57b78b54704e256024e90508073ffffffffffffffffffffffffffffffffffffffff1663c45a01556040518163ffffffff1660e01b815260040160206040518083038186803b1580156200047557600080fd5b505afa1580156200048a573d6000803e3d6000fd5b505050506040513d601f19601f82011682018060405250810190620004b0919062000a63565b73ffffffffffffffffffffffffffffffffffffffff1663c9c65396308373ffffffffffffffffffffffffffffffffffffffff1663ad5c46486040518163ffffffff1660e01b815260040160206040518083038186803b1580156200051357600080fd5b505afa15801562000528573d6000803e3d6000fd5b505050506040513d601f19601f820116820180604052508101906200054e919062000a63565b6040518363ffffffff1660e01b81526004016200056d92919062000c4d565b602060405180830381600087803b1580156200058857600080fd5b505af11580156200059d573d6000803e3d6000fd5b505050506040513d601f19601f82011682018060405250810190620005c3919062000a63565b601e60006101000a81548173ffffffffffffffffffffffffffffffffffffffff021916908373ffffffffffffffffffffffffffffffffffffffff1602179055508073ffffffffffffffffffffffffffffffffffffffff1660a08173ffffffffffffffffffffffffffffffffffffffff1660601b81525050600160086000620006506200085f60201b60201c565b73ffffffffffffffffffffffffffffffffffffffff1673ffffffffffffffffffffffffffffffffffffffff16815260200190815260200160002060006101000a81548160ff0219169083151502179055506001600860003073ffffffffffffffffffffffffffffffffffffffff1673ffffffffffffffffffffffffffffffffffffffff16815260200190815260200160002060006101000a81548160ff021916908315150217905550620007096200078160201b60201c565b73ffffffffffffffffffffffffffffffffffffffff16600073ffffffffffffffffffffffffffffffffffffffff167fddf252ad1be2c89b69c2b068fc378daa952ba7f163c4a11628f55a4df523b3ef600b546040516200076a919062000ce2565b60405180910390a350505050505050505062001342565b600033905090565b6000620007d383836040518060400160405280601a81526020017f536166654d6174683a206469766973696f6e206279207a65726f0000000000008152506200088860201b60201c565b905092915050565b600080831415620007f0576000905062000859565b6000828462000800919062000fa7565b905082848262000811919062000dd7565b1462000854576040517f08c379a00000000000000000000000000000000000000000000000000000000081526004016200084b9062000c9e565b60405180910390fd5b809150505b92915050565b60008060009054906101000a900473ffffffffffffffffffffffffffffffffffffffff16905090565b60008083118290620008d2576040517f08c379a0000000000000000000000000000000000000000000000000000000008152600401620008c9919062000c7a565b60405180910390fd5b5060008385620008e3919062000dd7565b9050809150509392505050565b828054620008fe90620010c4565b90600052602060002090601f0160209004810192826200092257600085556200096e565b82601f106200093d57805160ff19168380011785556200096e565b828001600101855582156200096e579182015b828111156200096d57825182559160200191906001019062000950565b5b5090506200097d919062000981565b5090565b5b808211156200099c57600081600090555060010162000982565b5090565b6000620009b7620009b18462000d28565b62000cff565b905082815260208101848484011115620009d657620009d562001229565b5b620009e38482856200108e565b509392505050565b600081519050620009fc81620012f4565b92915050565b600082601f83011262000a1a5762000a1962001224565b5b815162000a2c848260208601620009a0565b91505092915050565b60008151905062000a46816200130e565b92915050565b60008151905062000a5d8162001328565b92915050565b60006020828403121562000a7c5762000a7b62001233565b5b600062000a8c84828501620009eb565b91505092915050565b600080600080600080600080610100898b03121562000ab95762000ab862001233565b5b600089015167ffffffffffffffff81111562000ada5762000ad96200122e565b5b62000ae88b828c0162000a02565b985050602089015167ffffffffffffffff81111562000b0c5762000b0b6200122e565b5b62000b1a8b828c0162000a02565b975050604062000b2d8b828c0162000a4c565b965050606062000b408b828c0162000a35565b955050608062000b538b828c0162000a35565b94505060a062000b668b828c0162000a35565b93505060c062000b798b828c0162000a35565b92505060e062000b8c8b828c01620009eb565b9150509295985092959890939650565b62000ba78162001043565b82525050565b600062000bba8262000d5e565b62000bc6818562000d69565b935062000bd88185602086016200108e565b62000be38162001238565b840191505092915050565b600062000bfd60218362000d69565b915062000c0a8262001256565b604082019050919050565b600062000c2460278362000d69565b915062000c3182620012a5565b604082019050919050565b62000c478162001077565b82525050565b600060408201905062000c64600083018562000b9c565b62000c73602083018462000b9c565b9392505050565b6000602082019050818103600083015262000c96818462000bad565b905092915050565b6000602082019050818103600083015262000cb98162000bee565b9050919050565b6000602082019050818103600083015262000cdb8162000c15565b9050919050565b600060208201905062000cf9600083018462000c3c565b92915050565b600062000d0b62000d1e565b905062000d198282620010fa565b919050565b6000604051905090565b600067ffffffffffffffff82111562000d465762000d45620011f5565b5b62000d518262001238565b9050602081019050919050565b600081519050919050565b600082825260208201905092915050565b600062000d878262001077565b915062000d948362001077565b9250827fffffffffffffffffffffffffffffffffffffffffffffffffffffffffffffffff0382111562000dcc5762000dcb62001168565b5b828201905092915050565b600062000de48262001077565b915062000df18362001077565b92508262000e045762000e0362001197565b5b828204905092915050565b6000808291508390505b600185111562000e615780860481111562000e395762000e3862001168565b5b600185161562000e495780820291505b808102905062000e598562001249565b945062000e19565b94509492505050565b600062000e778262001077565b915062000e848362001081565b925062000eb37fffffffffffffffffffffffffffffffffffffffffffffffffffffffffffffffff848462000ebb565b905092915050565b60008262000ecd576001905062000fa0565b8162000edd576000905062000fa0565b816001811462000ef6576002811462000f015762000f37565b600191505062000fa0565b60ff84111562000f165762000f1562001168565b5b8360020a91508482111562000f305762000f2f62001168565b5b5062000fa0565b5060208310610133831016604e8410600b841016171562000f715782820a90508381111562000f6b5762000f6a62001168565b5b62000fa0565b62000f80848484600162000e0f565b9250905081840481111562000f9a5762000f9962001168565b5b81810290505b9392505050565b600062000fb48262001077565b915062000fc18362001077565b9250817fffffffffffffffffffffffffffffffffffffffffffffffffffffffffffffffff048311821515161562000ffd5762000ffc62001168565b5b828202905092915050565b6000620010158262001077565b9150620010228362001077565b92508282101562001038576200103762001168565b5b828203905092915050565b6000620010508262001057565b9050919050565b600073ffffffffffffffffffffffffffffffffffffffff82169050919050565b6000819050919050565b600060ff82169050919050565b60005b83811015620010ae57808201518184015260208101905062001091565b83811115620010be576000848401525b50505050565b60006002820490506001821680620010dd57607f821691505b60208210811415620010f457620010f3620011c6565b5b50919050565b620011058262001238565b810181811067ffffffffffffffff82111715620011275762001126620011f5565b5b80604052505050565b60006200113d8262001077565b91506200114a8362001077565b9250826200115d576200115c62001197565b5b828206905092915050565b7f4e487b7100000000000000000000000000000000000000000000000000000000600052601160045260246000fd5b7f4e487b7100000000000000000000000000000000000000000000000000000000600052601260045260246000fd5b7f4e487b7100000000000000000000000000000000000000000000000000000000600052602260045260246000fd5b7f4e487b7100000000000000000000000000000000000000000000000000000000600052604160045260246000fd5b600080fd5b600080fd5b600080fd5b600080fd5b6000601f19601f8301169050919050565b60008160011c9050919050565b7f536166654d6174683a206d756c7469706c69636174696f6e206f766572666c6f60008201527f7700000000000000000000000000000000000000000000000000000000000000602082015250565b7f4d61726b6574696e67206665652063616e206e6f74206265206c65737320746860008201527f616e20302e352500000000000000000000000000000000000000000000000000602082015250565b620012ff8162001043565b81146200130b57600080fd5b50565b620013198162001077565b81146200132557600080fd5b50565b620013338162001081565b81146200133f57600080fd5b50565b60805160601c60a05160601c615ff56200139860003960008181610cbb01528181613cf701528181613de701528181613e0e01528181613f7801526140b3015260008181610dc201526140f30152615ff56000f3fe6080604052600436106102e85760003560e01c8063625e764c11610190578063a5ece941116100dc578063dd46706411610095578063ec28438a1161006f578063ec28438a14610b5b578063edc2fcfb14610b84578063f0f165af14610bad578063f2fde38b14610bd6576102ef565b8063dd46706414610acc578063dd62ed3e14610af5578063ea2f0b3714610b32576102ef565b8063a5ece941146109d0578063a69df4b5146109fb578063a9059cbb14610a12578063bdc653ef14610a4f578063c4081a4c14610a7a578063c49b9a8014610aa3576102ef565b806388f820201161014957806395d89b411161012357806395d89b4114610914578063a073d37f1461093f578063a29a60891461096a578063a457c2d714610993576102ef565b806388f82020146108835780638da5cb5b146108c0578063906e9dd0146108eb576102ef565b8063625e764c146107875780636b67c4df146107b057806370a08231146107db578063715018a6146108185780637d1db4a51461082f57806382d2a4bb1461085a576102ef565b80633b124fe71161024f57806349bd5a5e116102085780635342acb4116101e25780635342acb4146106c9578063557ed1ba14610706578063602bc62b146107315780636053a0e31461075c576102ef565b806349bd5a5e1461064a5780634a74bb021461067557806352390c02146106a0576102ef565b80633b124fe71461053c5780633b2d081c146105675780633bd5d17314610592578063437823ec146105bb5780634549b039146105e45780634567bfba14610621576102ef565b806327c8f835116102a157806327c8f8351461041a57806329370cc6146104455780632d8381191461046e578063313ce567146104ab5780633685d419146104d657806339509351146104ff576102ef565b806306fdde03146102f4578063095ea7b31461031f57806313114a9d1461035c5780631694505e1461038757806318160ddd146103b257806323b872dd146103dd576102ef565b366102ef57005b600080fd5b34801561030057600080fd5b50610309610bff565b60405161031691906153c5565b60405180910390f35b34801561032b57600080fd5b5061034660048036038101906103419190614eb9565b610c91565b6040516103539190615343565b60405180910390f35b34801561036857600080fd5b50610371610caf565b60405161037e9190615607565b60405180910390f35b34801561039357600080fd5b5061039c610cb9565b6040516103a9919061535e565b60405180910390f35b3480156103be57600080fd5b506103c7610cdd565b6040516103d49190615607565b60405180910390f35b3480156103e957600080fd5b5061040460048036038101906103ff9190614e66565b610ce7565b6040516104119190615343565b60405180910390f35b34801561042657600080fd5b5061042f610dc0565b60405161043c919061530d565b60405180910390f35b34801561045157600080fd5b5061046c60048036038101906104679190614ef9565b610de4565b005b34801561047a57600080fd5b5061049560048036038101906104909190614f26565b610ecd565b6040516104a29190615607565b60405180910390f35b3480156104b757600080fd5b506104c0610f3b565b6040516104cd91906156ac565b60405180910390f35b3480156104e257600080fd5b506104fd60048036038101906104f89190614dcc565b610f52565b005b34801561050b57600080fd5b5061052660048036038101906105219190614eb9565b6112a1565b6040516105339190615343565b60405180910390f35b34801561054857600080fd5b50610551611354565b60405161055e9190615607565b60405180910390f35b34801561057357600080fd5b5061057c61135a565b6040516105899190615607565b60405180910390f35b34801561059e57600080fd5b506105b960048036038101906105b49190614f26565b611360565b005b3480156105c757600080fd5b506105e260048036038101906105dd9190614dcc565b6114db565b005b3480156105f057600080fd5b5061060b60048036038101906106069190614f53565b6115cb565b6040516106189190615607565b60405180910390f35b34801561062d57600080fd5b5061064860048036038101906106439190614f26565b61164f565b005b34801561065657600080fd5b5061065f61170b565b60405161066c919061530d565b60405180910390f35b34801561068157600080fd5b5061068a611731565b6040516106979190615343565b60405180910390f35b3480156106ac57600080fd5b506106c760048036038101906106c29190614dcc565b611744565b005b3480156106d557600080fd5b506106f060048036038101906106eb9190614dcc565b6119f8565b6040516106fd9190615343565b60405180910390f35b34801561071257600080fd5b5061071b611a4e565b6040516107289190615607565b60405180910390f35b34801561073d57600080fd5b50610746611a56565b6040516107539190615607565b60405180910390f35b34801561076857600080fd5b50610771611a60565b60405161077e9190615343565b60405180910390f35b34801561079357600080fd5b506107ae60048036038101906107a99190614f26565b611a73565b005b3480156107bc57600080fd5b506107c5611b74565b6040516107d29190615607565b60405180910390f35b3480156107e757600080fd5b5061080260048036038101906107fd9190614dcc565b611b7a565b60405161080f9190615607565b60405180910390f35b34801561082457600080fd5b5061082d611c65565b005b34801561083b57600080fd5b50610844611db8565b6040516108519190615607565b60405180910390f35b34801561086657600080fd5b50610881600480360381019061087c9190614f26565b611dbe565b005b34801561088f57600080fd5b506108aa60048036038101906108a59190614dcc565b611e5d565b6040516108b79190615343565b60405180910390f35b3480156108cc57600080fd5b506108d5611eb3565b6040516108e2919061530d565b60405180910390f35b3480156108f757600080fd5b50610912600480360381019061090d9190614dcc565b611edc565b005b34801561092057600080fd5b50610929611fb5565b60405161093691906153c5565b60405180910390f35b34801561094b57600080fd5b50610954612047565b6040516109619190615607565b60405180910390f35b34801561097657600080fd5b50610991600480360381019061098c9190614dcc565b612051565b005b34801561099f57600080fd5b506109ba60048036038101906109b59190614eb9565b612095565b6040516109c79190615343565b60405180910390f35b3480156109dc57600080fd5b506109e5612162565b6040516109f29190615328565b60405180910390f35b348015610a0757600080fd5b50610a10612188565b005b348015610a1e57600080fd5b50610a396004803603810190610a349190614eb9565b61235c565b604051610a469190615343565b60405180910390f35b348015610a5b57600080fd5b50610a6461237a565b604051610a719190615607565b60405180910390f35b348015610a8657600080fd5b50610aa16004803603810190610a9c9190614f26565b612384565b005b348015610aaf57600080fd5b50610aca6004803603810190610ac59190614ef9565b612423565b005b348015610ad857600080fd5b50610af36004803603810190610aee9190614f26565b61250c565b005b348015610b0157600080fd5b50610b1c6004803603810190610b179190614e26565b6126d3565b604051610b299190615607565b60405180910390f35b348015610b3e57600080fd5b50610b596004803603810190610b549190614dcc565b61275a565b005b348015610b6757600080fd5b50610b826004803603810190610b7d9190614f26565b61284a565b005b348015610b9057600080fd5b50610bab6004803603810190610ba69190614ef9565b6128e9565b005b348015610bb957600080fd5b50610bd46004803603810190610bcf9190614f26565b6129d1565b005b348015610be257600080fd5b50610bfd6004803603810190610bf89190614dcc565b612a70565b005b6060600e8054610c0e90615901565b80601f0160208091040260200160405190810160405280929190818152602001828054610c3a90615901565b8015610c875780601f10610c5c57610100808354040283529160200191610c87565b820191906000526020600020905b815481529060010190602001808311610c6a57829003601f168201915b5050505050905090565b6000610ca5610c9e612cf7565b8484612cff565b6001905092915050565b6000600d54905090565b7f000000000000000000000000000000000000000000000000000000000000000081565b6000600b54905090565b6000610cf4848484612eca565b610db584610d00612cf7565b610db085604051806060016040528060288152602001615f7360289139600760008b73ffffffffffffffffffffffffffffffffffffffff1673ffffffffffffffffffffffffffffffffffffffff1681526020019081526020016000206000610d66612cf7565b73ffffffffffffffffffffffffffffffffffffffff1673ffffffffffffffffffffffffffffffffffffffff168152602001908152602001600020546132829092919063ffffffff16565b612cff565b600190509392505050565b7f000000000000000000000000000000000000000000000000000000000000000081565b610dec612cf7565b73ffffffffffffffffffffffffffffffffffffffff1660008054906101000a900473ffffffffffffffffffffffffffffffffffffffff1673ffffffffffffffffffffffffffffffffffffffff1614610e79576040517f08c379a0000000000000000000000000000000000000000000000000000000008152600401610e7090615527565b60405180910390fd5b80601e60166101000a81548160ff0219169083151502179055507f3794234fa370c9f3b948dda3e3040530785b2ef1eb27dda3ffde478f4e2643c081604051610ec29190615343565b60405180910390a150565b6000600c54821115610f14576040517f08c379a0000000000000000000000000000000000000000000000000000000008152600401610f0b90615407565b60405180910390fd5b6000610f1e6132e6565b9050610f338184612c3290919063ffffffff16565b915050919050565b6000601060009054906101000a900460ff16905090565b610f5a612cf7565b73ffffffffffffffffffffffffffffffffffffffff1660008054906101000a900473ffffffffffffffffffffffffffffffffffffffff1673ffffffffffffffffffffffffffffffffffffffff1614610fe7576040517f08c379a0000000000000000000000000000000000000000000000000000000008152600401610fde90615527565b60405180910390fd5b600960008273ffffffffffffffffffffffffffffffffffffffff1673ffffffffffffffffffffffffffffffffffffffff16815260200190815260200160002060009054906101000a900460ff16611073576040517f08c379a000000000000000000000000000000000000000000000000000000000815260040161106a90615487565b60405180910390fd5b60005b600a8054905081101561129d578173ffffffffffffffffffffffffffffffffffffffff16600a82815481106110ae576110ad615a38565b5b9060005260206000200160009054906101000a900473ffffffffffffffffffffffffffffffffffffffff1673ffffffffffffffffffffffffffffffffffffffff16141561128a57600a6001600a8054905061110991906157fd565b8154811061111a57611119615a38565b5b9060005260206000200160009054906101000a900473ffffffffffffffffffffffffffffffffffffffff16600a828154811061115957611158615a38565b5b9060005260206000200160006101000a81548173ffffffffffffffffffffffffffffffffffffffff021916908373ffffffffffffffffffffffffffffffffffffffff1602179055506000600660008473ffffffffffffffffffffffffffffffffffffffff1673ffffffffffffffffffffffffffffffffffffffff168152602001908152602001600020819055506000600960008473ffffffffffffffffffffffffffffffffffffffff1673ffffffffffffffffffffffffffffffffffffffff16815260200190815260200160002060006101000a81548160ff021916908315150217905550600a8054806112505761124f615a09565b5b6001900381819060005260206000200160006101000a81549073ffffffffffffffffffffffffffffffffffffffff0219169055905561129d565b808061129590615933565b915050611076565b5050565b600061134a6112ae612cf7565b8461134585600760006112bf612cf7565b73ffffffffffffffffffffffffffffffffffffffff1673ffffffffffffffffffffffffffffffffffffffff16815260200190815260200160002060008973ffffffffffffffffffffffffffffffffffffffff1673ffffffffffffffffffffffffffffffffffffffff1681526020019081526020016000205461331190919063ffffffff16565b612cff565b6001905092915050565b60115481565b60155481565b600061136a612cf7565b9050600960008273ffffffffffffffffffffffffffffffffffffffff1673ffffffffffffffffffffffffffffffffffffffff16815260200190815260200160002060009054906101000a900460ff16156113f9576040517f08c379a00000000000000000000000000000000000000000000000000000000081526004016113f0906155c7565b60405180910390fd5b60006114048361336f565b5050505050905061145d81600560008573ffffffffffffffffffffffffffffffffffffffff1673ffffffffffffffffffffffffffffffffffffffff168152602001908152602001600020546133cb90919063ffffffff16565b600560008473ffffffffffffffffffffffffffffffffffffffff1673ffffffffffffffffffffffffffffffffffffffff168152602001908152602001600020819055506114b581600c546133cb90919063ffffffff16565b600c819055506114d083600d5461331190919063ffffffff16565b600d81905550505050565b6114e3612cf7565b73ffffffffffffffffffffffffffffffffffffffff1660008054906101000a900473ffffffffffffffffffffffffffffffffffffffff1673ffffffffffffffffffffffffffffffffffffffff1614611570576040517f08c379a000000000000000000000000000000000000000000000000000000000815260040161156790615527565b60405180910390fd5b6001600860008373ffffffffffffffffffffffffffffffffffffffff1673ffffffffffffffffffffffffffffffffffffffff16815260200190815260200160002060006101000a81548160ff02191690831515021790555050565b6000600b54831115611612576040517f08c379a0000000000000000000000000000000000000000000000000000000008152600401611609906154a7565b60405180910390fd5b816116325760006116228461336f565b5050505050905080915050611649565b600061163d8461336f565b50505050915050809150505b92915050565b611657612cf7565b73ffffffffffffffffffffffffffffffffffffffff1660008054906101000a900473ffffffffffffffffffffffffffffffffffffffff1673ffffffffffffffffffffffffffffffffffffffff16146116e4576040517f08c379a00000000000000000000000000000000000000000000000000000000081526004016116db90615527565b60405180910390fd5b8060158190555061170260175460155461331190919063ffffffff16565b60138190555050565b601e60009054906101000a900473ffffffffffffffffffffffffffffffffffffffff1681565b601e60159054906101000a900460ff1681565b61174c612cf7565b73ffffffffffffffffffffffffffffffffffffffff1660008054906101000a900473ffffffffffffffffffffffffffffffffffffffff1673ffffffffffffffffffffffffffffffffffffffff16146117d9576040517f08c379a00000000000000000000000000000000000000000000000000000000081526004016117d090615527565b60405180910390fd5b600960008273ffffffffffffffffffffffffffffffffffffffff1673ffffffffffffffffffffffffffffffffffffffff16815260200190815260200160002060009054906101000a900460ff1615611866576040517f08c379a000000000000000000000000000000000000000000000000000000000815260040161185d90615487565b60405180910390fd5b6000600560008373ffffffffffffffffffffffffffffffffffffffff1673ffffffffffffffffffffffffffffffffffffffff16815260200190815260200160002054111561193a576118f6600560008373ffffffffffffffffffffffffffffffffffffffff1673ffffffffffffffffffffffffffffffffffffffff16815260200190815260200160002054610ecd565b600660008373ffffffffffffffffffffffffffffffffffffffff1673ffffffffffffffffffffffffffffffffffffffff168152602001908152602001600020819055505b6001600960008373ffffffffffffffffffffffffffffffffffffffff1673ffffffffffffffffffffffffffffffffffffffff16815260200190815260200160002060006101000a81548160ff021916908315150217905550600a819080600181540180825580915050600190039060005260206000200160009091909190916101000a81548173ffffffffffffffffffffffffffffffffffffffff021916908373ffffffffffffffffffffffffffffffffffffffff16021790555050565b6000600860008373ffffffffffffffffffffffffffffffffffffffff1673ffffffffffffffffffffffffffffffffffffffff16815260200190815260200160002060009054906101000a900460ff169050919050565b600042905090565b6000600254905090565b601e60169054906101000a900460ff1681565b611a7b612cf7565b73ffffffffffffffffffffffffffffffffffffffff1660008054906101000a900473ffffffffffffffffffffffffffffffffffffffff1673ffffffffffffffffffffffffffffffffffffffff1614611b08576040517f08c379a0000000000000000000000000000000000000000000000000000000008152600401611aff90615527565b60405180910390fd5b601954811015611b4d576040517f08c379a0000000000000000000000000000000000000000000000000000000008152600401611b44906154e7565b60405180910390fd5b80601781905550611b6b60175460155461331190919063ffffffff16565b60138190555050565b60175481565b6000600960008373ffffffffffffffffffffffffffffffffffffffff1673ffffffffffffffffffffffffffffffffffffffff16815260200190815260200160002060009054906101000a900460ff1615611c1557600660008373ffffffffffffffffffffffffffffffffffffffff1673ffffffffffffffffffffffffffffffffffffffff168152602001908152602001600020549050611c60565b611c5d600560008473ffffffffffffffffffffffffffffffffffffffff1673ffffffffffffffffffffffffffffffffffffffff16815260200190815260200160002054610ecd565b90505b919050565b611c6d612cf7565b73ffffffffffffffffffffffffffffffffffffffff1660008054906101000a900473ffffffffffffffffffffffffffffffffffffffff1673ffffffffffffffffffffffffffffffffffffffff1614611cfa576040517f08c379a0000000000000000000000000000000000000000000000000000000008152600401611cf190615527565b60405180910390fd5b600073ffffffffffffffffffffffffffffffffffffffff1660008054906101000a900473ffffffffffffffffffffffffffffffffffffffff1673ffffffffffffffffffffffffffffffffffffffff167f8be0079c531659141344cd1fd0a4f28419497f9722a3daafe3b4186f6b6457e060405160405180910390a360008060006101000a81548173ffffffffffffffffffffffffffffffffffffffff021916908373ffffffffffffffffffffffffffffffffffffffff160217905550565b601a5481565b611dc6612cf7565b73ffffffffffffffffffffffffffffffffffffffff1660008054906101000a900473ffffffffffffffffffffffffffffffffffffffff1673ffffffffffffffffffffffffffffffffffffffff1614611e53576040517f08c379a0000000000000000000000000000000000000000000000000000000008152600401611e4a90615527565b60405180910390fd5b80601d8190555050565b6000600960008373ffffffffffffffffffffffffffffffffffffffff1673ffffffffffffffffffffffffffffffffffffffff16815260200190815260200160002060009054906101000a900460ff169050919050565b60008060009054906101000a900473ffffffffffffffffffffffffffffffffffffffff16905090565b611ee4612cf7565b73ffffffffffffffffffffffffffffffffffffffff1660008054906101000a900473ffffffffffffffffffffffffffffffffffffffff1673ffffffffffffffffffffffffffffffffffffffff1614611f71576040517f08c379a0000000000000000000000000000000000000000000000000000000008152600401611f6890615527565b60405180910390fd5b80600460006101000a81548173ffffffffffffffffffffffffffffffffffffffff021916908373ffffffffffffffffffffffffffffffffffffffff16021790555050565b6060600f8054611fc490615901565b80601f0160208091040260200160405190810160405280929190818152602001828054611ff090615901565b801561203d5780601f106120125761010080835404028352916020019161203d565b820191906000526020600020905b81548152906001019060200180831161202057829003601f168201915b5050505050905090565b6000601c54905090565b80601e60006101000a81548173ffffffffffffffffffffffffffffffffffffffff021916908373ffffffffffffffffffffffffffffffffffffffff16021790555050565b60006121586120a2612cf7565b8461215385604051806060016040528060258152602001615f9b60259139600760006120cc612cf7565b73ffffffffffffffffffffffffffffffffffffffff1673ffffffffffffffffffffffffffffffffffffffff16815260200190815260200160002060008a73ffffffffffffffffffffffffffffffffffffffff1673ffffffffffffffffffffffffffffffffffffffff168152602001908152602001600020546132829092919063ffffffff16565b612cff565b6001905092915050565b600460009054906101000a900473ffffffffffffffffffffffffffffffffffffffff1681565b3373ffffffffffffffffffffffffffffffffffffffff16600160009054906101000a900473ffffffffffffffffffffffffffffffffffffffff1673ffffffffffffffffffffffffffffffffffffffff1614612218576040517f08c379a000000000000000000000000000000000000000000000000000000000815260040161220f906155e7565b60405180910390fd5b600254421161225c576040517f08c379a0000000000000000000000000000000000000000000000000000000008152600401612253906155a7565b60405180910390fd5b600160009054906101000a900473ffffffffffffffffffffffffffffffffffffffff1673ffffffffffffffffffffffffffffffffffffffff1660008054906101000a900473ffffffffffffffffffffffffffffffffffffffff1673ffffffffffffffffffffffffffffffffffffffff167f8be0079c531659141344cd1fd0a4f28419497f9722a3daafe3b4186f6b6457e060405160405180910390a3600160009054906101000a900473ffffffffffffffffffffffffffffffffffffffff166000806101000a81548173ffffffffffffffffffffffffffffffffffffffff021916908373ffffffffffffffffffffffffffffffffffffffff160217905550565b6000612370612369612cf7565b8484612eca565b6001905092915050565b6000601d54905090565b61238c612cf7565b73ffffffffffffffffffffffffffffffffffffffff1660008054906101000a900473ffffffffffffffffffffffffffffffffffffffff1673ffffffffffffffffffffffffffffffffffffffff1614612419576040517f08c379a000000000000000000000000000000000000000000000000000000000815260040161241090615527565b60405180910390fd5b8060118190555050565b61242b612cf7565b73ffffffffffffffffffffffffffffffffffffffff1660008054906101000a900473ffffffffffffffffffffffffffffffffffffffff1673ffffffffffffffffffffffffffffffffffffffff16146124b8576040517f08c379a00000000000000000000000000000000000000000000000000000000081526004016124af90615527565b60405180910390fd5b80601e60156101000a81548160ff0219169083151502179055507f53726dfcaf90650aa7eb35524f4d3220f07413c8d6cb404cc8c18bf5591bc159816040516125019190615343565b60405180910390a150565b612514612cf7565b73ffffffffffffffffffffffffffffffffffffffff1660008054906101000a900473ffffffffffffffffffffffffffffffffffffffff1673ffffffffffffffffffffffffffffffffffffffff16146125a1576040517f08c379a000000000000000000000000000000000000000000000000000000000815260040161259890615527565b60405180910390fd5b60008054906101000a900473ffffffffffffffffffffffffffffffffffffffff16600160006101000a81548173ffffffffffffffffffffffffffffffffffffffff021916908373ffffffffffffffffffffffffffffffffffffffff16021790555060008060006101000a81548173ffffffffffffffffffffffffffffffffffffffff021916908373ffffffffffffffffffffffffffffffffffffffff160217905550804261264f919061571c565b600281905550600073ffffffffffffffffffffffffffffffffffffffff1660008054906101000a900473ffffffffffffffffffffffffffffffffffffffff1673ffffffffffffffffffffffffffffffffffffffff167f8be0079c531659141344cd1fd0a4f28419497f9722a3daafe3b4186f6b6457e060405160405180910390a350565b6000600760008473ffffffffffffffffffffffffffffffffffffffff1673ffffffffffffffffffffffffffffffffffffffff16815260200190815260200160002060008373ffffffffffffffffffffffffffffffffffffffff1673ffffffffffffffffffffffffffffffffffffffff16815260200190815260200160002054905092915050565b612762612cf7565b73ffffffffffffffffffffffffffffffffffffffff1660008054906101000a900473ffffffffffffffffffffffffffffffffffffffff1673ffffffffffffffffffffffffffffffffffffffff16146127ef576040517f08c379a00000000000000000000000000000000000000000000000000000000081526004016127e690615527565b60405180910390fd5b6000600860008373ffffffffffffffffffffffffffffffffffffffff1673ffffffffffffffffffffffffffffffffffffffff16815260200190815260200160002060006101000a81548160ff02191690831515021790555050565b612852612cf7565b73ffffffffffffffffffffffffffffffffffffffff1660008054906101000a900473ffffffffffffffffffffffffffffffffffffffff1673ffffffffffffffffffffffffffffffffffffffff16146128df576040517f08c379a00000000000000000000000000000000000000000000000000000000081526004016128d690615527565b60405180910390fd5b80601a8190555050565b6128f1612cf7565b73ffffffffffffffffffffffffffffffffffffffff1660008054906101000a900473ffffffffffffffffffffffffffffffffffffffff1673ffffffffffffffffffffffffffffffffffffffff161461297e576040517f08c379a000000000000000000000000000000000000000000000000000000000815260040161297590615527565b60405180910390fd5b80156129b25761298e6000612423565b612996613415565b601a54601b819055506129a7610cdd565b601a819055506129ce565b6129bc6001612423565b6129c461347a565b601b54601a819055505b50565b6129d9612cf7565b73ffffffffffffffffffffffffffffffffffffffff1660008054906101000a900473ffffffffffffffffffffffffffffffffffffffff1673ffffffffffffffffffffffffffffffffffffffff1614612a66576040517f08c379a0000000000000000000000000000000000000000000000000000000008152600401612a5d90615527565b60405180910390fd5b80601c8190555050565b612a78612cf7565b73ffffffffffffffffffffffffffffffffffffffff1660008054906101000a900473ffffffffffffffffffffffffffffffffffffffff1673ffffffffffffffffffffffffffffffffffffffff1614612b05576040517f08c379a0000000000000000000000000000000000000000000000000000000008152600401612afc90615527565b60405180910390fd5b600073ffffffffffffffffffffffffffffffffffffffff168173ffffffffffffffffffffffffffffffffffffffff161415612b75576040517f08c379a0000000000000000000000000000000000000000000000000000000008152600401612b6c90615427565b60405180910390fd5b8073ffffffffffffffffffffffffffffffffffffffff1660008054906101000a900473ffffffffffffffffffffffffffffffffffffffff1673ffffffffffffffffffffffffffffffffffffffff167f8be0079c531659141344cd1fd0a4f28419497f9722a3daafe3b4186f6b6457e060405160405180910390a3806000806101000a81548173ffffffffffffffffffffffffffffffffffffffff021916908373ffffffffffffffffffffffffffffffffffffffff16021790555050565b6000612c7483836040518060400160405280601a81526020017f536166654d6174683a206469766973696f6e206279207a65726f0000000000008152506134a0565b905092915050565b600080831415612c8f5760009050612cf1565b60008284612c9d91906157a3565b9050828482612cac9190615772565b14612cec576040517f08c379a0000000000000000000000000000000000000000000000000000000008152600401612ce390615507565b60405180910390fd5b809150505b92915050565b600033905090565b600073ffffffffffffffffffffffffffffffffffffffff168373ffffffffffffffffffffffffffffffffffffffff161415612d6f576040517f08c379a0000000000000000000000000000000000000000000000000000000008152600401612d6690615587565b60405180910390fd5b600073ffffffffffffffffffffffffffffffffffffffff168273ffffffffffffffffffffffffffffffffffffffff161415612ddf576040517f08c379a0000000000000000000000000000000000000000000000000000000008152600401612dd690615447565b60405180910390fd5b80600760008573ffffffffffffffffffffffffffffffffffffffff1673ffffffffffffffffffffffffffffffffffffffff16815260200190815260200160002060008473ffffffffffffffffffffffffffffffffffffffff1673ffffffffffffffffffffffffffffffffffffffff168152602001908152602001600020819055508173ffffffffffffffffffffffffffffffffffffffff168373ffffffffffffffffffffffffffffffffffffffff167f8c5be1e5ebec7d5bd14f71427d1e84f3dd0314c0f7b2291e5b200ac8c7c3b92583604051612ebd9190615607565b60405180910390a3505050565b600073ffffffffffffffffffffffffffffffffffffffff168373ffffffffffffffffffffffffffffffffffffffff161415612f3a576040517f08c379a0000000000000000000000000000000000000000000000000000000008152600401612f3190615567565b60405180910390fd5b600073ffffffffffffffffffffffffffffffffffffffff168273ffffffffffffffffffffffffffffffffffffffff161415612faa576040517f08c379a0000000000000000000000000000000000000000000000000000000008152600401612fa1906153e7565b60405180910390fd5b60008111612fed576040517f08c379a0000000000000000000000000000000000000000000000000000000008152600401612fe490615547565b60405180910390fd5b612ff5611eb3565b73ffffffffffffffffffffffffffffffffffffffff168373ffffffffffffffffffffffffffffffffffffffff16141580156130635750613033611eb3565b73ffffffffffffffffffffffffffffffffffffffff168273ffffffffffffffffffffffffffffffffffffffff1614155b156130ae57601a548111156130ad576040517f08c379a00000000000000000000000000000000000000000000000000000000081526004016130a4906154c7565b60405180910390fd5b5b60006130b930611b7a565b90506000601c548210159050601e60149054906101000a900460ff161580156130ee5750601e60159054906101000a900460ff165b80156131475750601e60009054906101000a900473ffffffffffffffffffffffffffffffffffffffff1673ffffffffffffffffffffffffffffffffffffffff168473ffffffffffffffffffffffffffffffffffffffff16145b156131bd57801561316157601c54915061316082613503565b5b6000479050601e60169054906101000a900460ff1680156131895750670de0b6b3a764000081115b156131bb57601d5481111561319e57601d5490505b6131ba6131b5606483612c3290919063ffffffff16565b61361f565b5b505b600060019050600860008773ffffffffffffffffffffffffffffffffffffffff1673ffffffffffffffffffffffffffffffffffffffff16815260200190815260200160002060009054906101000a900460ff16806132645750600860008673ffffffffffffffffffffffffffffffffffffffff1673ffffffffffffffffffffffffffffffffffffffff16815260200190815260200160002060009054906101000a900460ff165b1561326e57600090505b61327a8686868461366b565b505050505050565b60008383111582906132ca576040517f08c379a00000000000000000000000000000000000000000000000000000000081526004016132c191906153c5565b60405180910390fd5b50600083856132d991906157fd565b9050809150509392505050565b60008060006132f36138c2565b9150915061330a8183612c3290919063ffffffff16565b9250505090565b6000808284613320919061571c565b905083811015613365576040517f08c379a000000000000000000000000000000000000000000000000000000000815260040161335c90615467565b60405180910390fd5b8091505092915050565b60008060008060008060008060006133868a613b75565b92509250925060008060006133a48d868661339f6132e6565b613bcf565b9250925092508282828888889b509b509b509b509b509b5050505050505091939550919395565b600061340d83836040518060400160405280601e81526020017f536166654d6174683a207375627472616374696f6e206f766572666c6f770000815250613282565b905092915050565b600060115414801561342957506000601354145b1561343357613478565b60115460128190555060135460148190555060155460168190555060175460188190555060006011819055506000601381905550600060158190555060006017819055505b565b601254601181905550601454601381905550601654601581905550601854601781905550565b600080831182906134e7576040517f08c379a00000000000000000000000000000000000000000000000000000000081526004016134de91906153c5565b60405180910390fd5b50600083856134f69190615772565b9050809150509392505050565b6001601e60146101000a81548160ff021916908315150217905550600047905061352c82613c58565b600061354182476133cb90919063ffffffff16565b9050613597600360009054906101000a900473ffffffffffffffffffffffffffffffffffffffff1661359260195461358460135486612c3290919063ffffffff16565b612c7c90919063ffffffff16565b613edd565b6135ff600460009054906101000a900473ffffffffffffffffffffffffffffffffffffffff166135fa6135d76019546017546133cb90919063ffffffff16565b6135ec60135486612c3290919063ffffffff16565b612c7c90919063ffffffff16565b613edd565b50506000601e60146101000a81548160ff02191690831515021790555050565b6001601e60146101000a81548160ff021916908315150217905550600081111561364d5761364c81613f28565b5b6000601e60146101000a81548160ff02191690831515021790555050565b8061367957613678613415565b5b600960008573ffffffffffffffffffffffffffffffffffffffff1673ffffffffffffffffffffffffffffffffffffffff16815260200190815260200160002060009054906101000a900460ff16801561371c5750600960008473ffffffffffffffffffffffffffffffffffffffff1673ffffffffffffffffffffffffffffffffffffffff16815260200190815260200160002060009054906101000a900460ff16155b156137315761372c8484846141b5565b6138ae565b600960008573ffffffffffffffffffffffffffffffffffffffff1673ffffffffffffffffffffffffffffffffffffffff16815260200190815260200160002060009054906101000a900460ff161580156137d45750600960008473ffffffffffffffffffffffffffffffffffffffff1673ffffffffffffffffffffffffffffffffffffffff16815260200190815260200160002060009054906101000a900460ff165b156137e9576137e4848484614415565b6138ad565b600960008573ffffffffffffffffffffffffffffffffffffffff1673ffffffffffffffffffffffffffffffffffffffff16815260200190815260200160002060009054906101000a900460ff16801561388b5750600960008473ffffffffffffffffffffffffffffffffffffffff1673ffffffffffffffffffffffffffffffffffffffff16815260200190815260200160002060009054906101000a900460ff165b156138a05761389b848484614675565b6138ac565b6138ab84848461496a565b5b5b5b806138bc576138bb61347a565b5b50505050565b6000806000600c5490506000600b54905060005b600a80549050811015613b38578260056000600a84815481106138fc576138fb615a38565b5b9060005260206000200160009054906101000a900473ffffffffffffffffffffffffffffffffffffffff1673ffffffffffffffffffffffffffffffffffffffff1673ffffffffffffffffffffffffffffffffffffffff1681526020019081526020016000205411806139ea57508160066000600a848154811061398257613981615a38565b5b9060005260206000200160009054906101000a900473ffffffffffffffffffffffffffffffffffffffff1673ffffffffffffffffffffffffffffffffffffffff1673ffffffffffffffffffffffffffffffffffffffff16815260200190815260200160002054115b15613a0157600c54600b5494509450505050613b71565b613a9160056000600a8481548110613a1c57613a1b615a38565b5b9060005260206000200160009054906101000a900473ffffffffffffffffffffffffffffffffffffffff1673ffffffffffffffffffffffffffffffffffffffff1673ffffffffffffffffffffffffffffffffffffffff16815260200190815260200160002054846133cb90919063ffffffff16565b9250613b2360066000600a8481548110613aae57613aad615a38565b5b9060005260206000200160009054906101000a900473ffffffffffffffffffffffffffffffffffffffff1673ffffffffffffffffffffffffffffffffffffffff1673ffffffffffffffffffffffffffffffffffffffff16815260200190815260200160002054836133cb90919063ffffffff16565b91508080613b3090615933565b9150506138d6565b50613b50600b54600c54612c3290919063ffffffff16565b821015613b6857600c54600b54935093505050613b71565b81819350935050505b9091565b600080600080613b8485614b35565b90506000613b9186614b67565b90506000613bba82613bac858a6133cb90919063ffffffff16565b6133cb90919063ffffffff16565b90508083839550955095505050509193909250565b600080600080613be88589612c7c90919063ffffffff16565b90506000613bff8689612c7c90919063ffffffff16565b90506000613c168789612c7c90919063ffffffff16565b90506000613c3f82613c3185876133cb90919063ffffffff16565b6133cb90919063ffffffff16565b9050838184965096509650505050509450945094915050565b6000600267ffffffffffffffff811115613c7557613c74615a67565b5b604051908082528060200260200182016040528015613ca35781602001602082028036833780820191505090505b5090503081600081518110613cbb57613cba615a38565b5b602002602001019073ffffffffffffffffffffffffffffffffffffffff16908173ffffffffffffffffffffffffffffffffffffffff16815250507f000000000000000000000000000000000000000000000000000000000000000073ffffffffffffffffffffffffffffffffffffffff1663ad5c46486040518163ffffffff1660e01b815260040160206040518083038186803b158015613d5b57600080fd5b505afa158015613d6f573d6000803e3d6000fd5b505050506040513d601f19601f82011682018060405250810190613d939190614df9565b81600181518110613da757613da6615a38565b5b602002602001019073ffffffffffffffffffffffffffffffffffffffff16908173ffffffffffffffffffffffffffffffffffffffff1681525050613e0c307f000000000000000000000000000000000000000000000000000000000000000084612cff565b7f000000000000000000000000000000000000000000000000000000000000000073ffffffffffffffffffffffffffffffffffffffff1663791ac9478360008430426040518663ffffffff1660e01b8152600401613e6e959493929190615652565b600060405180830381600087803b158015613e8857600080fd5b505af1158015613e9c573d6000803e3d6000fd5b505050507f32cde87eb454f3a0b875ab23547023107cfad454363ec88ba5695e2c24aa52a78282604051613ed1929190615622565b60405180910390a15050565b8173ffffffffffffffffffffffffffffffffffffffff166108fc829081150290604051600060405180830381858888f19350505050158015613f23573d6000803e3d6000fd5b505050565b6000600267ffffffffffffffff811115613f4557613f44615a67565b5b604051908082528060200260200182016040528015613f735781602001602082028036833780820191505090505b5090507f000000000000000000000000000000000000000000000000000000000000000073ffffffffffffffffffffffffffffffffffffffff1663ad5c46486040518163ffffffff1660e01b815260040160206040518083038186803b158015613fdc57600080fd5b505afa158015613ff0573d6000803e3d6000fd5b505050506040513d601f19601f820116820180604052508101906140149190614df9565b8160008151811061402857614027615a38565b5b602002602001019073ffffffffffffffffffffffffffffffffffffffff16908173ffffffffffffffffffffffffffffffffffffffff1681525050308160018151811061407757614076615a38565b5b602002602001019073ffffffffffffffffffffffffffffffffffffffff16908173ffffffffffffffffffffffffffffffffffffffff16815250507f000000000000000000000000000000000000000000000000000000000000000073ffffffffffffffffffffffffffffffffffffffff1663b6f9de95836000847f000000000000000000000000000000000000000000000000000000000000000061412761012c4261331190919063ffffffff16565b6040518663ffffffff1660e01b81526004016141469493929190615379565b6000604051808303818588803b15801561415f57600080fd5b505af1158015614173573d6000803e3d6000fd5b50505050507f6fd378a9d8b7345c2e5b18229aaf1e39d32b177b501d0a0d26a0a858a23a962482826040516141a9929190615622565b60405180910390a15050565b6000806000806000806141c78761336f565b95509550955095509550955061422587600660008c73ffffffffffffffffffffffffffffffffffffffff1673ffffffffffffffffffffffffffffffffffffffff168152602001908152602001600020546133cb90919063ffffffff16565b600660008b73ffffffffffffffffffffffffffffffffffffffff1673ffffffffffffffffffffffffffffffffffffffff168152602001908152602001600020819055506142ba86600560008c73ffffffffffffffffffffffffffffffffffffffff1673ffffffffffffffffffffffffffffffffffffffff168152602001908152602001600020546133cb90919063ffffffff16565b600560008b73ffffffffffffffffffffffffffffffffffffffff1673ffffffffffffffffffffffffffffffffffffffff1681526020019081526020016000208190555061434f85600560008b73ffffffffffffffffffffffffffffffffffffffff1673ffffffffffffffffffffffffffffffffffffffff1681526020019081526020016000205461331190919063ffffffff16565b600560008a73ffffffffffffffffffffffffffffffffffffffff1673ffffffffffffffffffffffffffffffffffffffff1681526020019081526020016000208190555061439b81614b99565b6143a58483614d3e565b8773ffffffffffffffffffffffffffffffffffffffff168973ffffffffffffffffffffffffffffffffffffffff167fddf252ad1be2c89b69c2b068fc378daa952ba7f163c4a11628f55a4df523b3ef856040516144029190615607565b60405180910390a3505050505050505050565b6000806000806000806144278761336f565b95509550955095509550955061448586600560008c73ffffffffffffffffffffffffffffffffffffffff1673ffffffffffffffffffffffffffffffffffffffff168152602001908152602001600020546133cb90919063ffffffff16565b600560008b73ffffffffffffffffffffffffffffffffffffffff1673ffffffffffffffffffffffffffffffffffffffff1681526020019081526020016000208190555061451a83600660008b73ffffffffffffffffffffffffffffffffffffffff1673ffffffffffffffffffffffffffffffffffffffff1681526020019081526020016000205461331190919063ffffffff16565b600660008a73ffffffffffffffffffffffffffffffffffffffff1673ffffffffffffffffffffffffffffffffffffffff168152602001908152602001600020819055506145af85600560008b73ffffffffffffffffffffffffffffffffffffffff1673ffffffffffffffffffffffffffffffffffffffff1681526020019081526020016000205461331190919063ffffffff16565b600560008a73ffffffffffffffffffffffffffffffffffffffff1673ffffffffffffffffffffffffffffffffffffffff168152602001908152602001600020819055506145fb81614b99565b6146058483614d3e565b8773ffffffffffffffffffffffffffffffffffffffff168973ffffffffffffffffffffffffffffffffffffffff167fddf252ad1be2c89b69c2b068fc378daa952ba7f163c4a11628f55a4df523b3ef856040516146629190615607565b60405180910390a3505050505050505050565b6000806000806000806146878761336f565b9550955095509550955095506146e587600660008c73ffffffffffffffffffffffffffffffffffffffff1673ffffffffffffffffffffffffffffffffffffffff168152602001908152602001600020546133cb90919063ffffffff16565b600660008b73ffffffffffffffffffffffffffffffffffffffff1673ffffffffffffffffffffffffffffffffffffffff1681526020019081526020016000208190555061477a86600560008c73ffffffffffffffffffffffffffffffffffffffff1673ffffffffffffffffffffffffffffffffffffffff168152602001908152602001600020546133cb90919063ffffffff16565b600560008b73ffffffffffffffffffffffffffffffffffffffff1673ffffffffffffffffffffffffffffffffffffffff1681526020019081526020016000208190555061480f83600660008b73ffffffffffffffffffffffffffffffffffffffff1673ffffffffffffffffffffffffffffffffffffffff1681526020019081526020016000205461331190919063ffffffff16565b600660008a73ffffffffffffffffffffffffffffffffffffffff1673ffffffffffffffffffffffffffffffffffffffff168152602001908152602001600020819055506148a485600560008b73ffffffffffffffffffffffffffffffffffffffff1673ffffffffffffffffffffffffffffffffffffffff1681526020019081526020016000205461331190919063ffffffff16565b600560008a73ffffffffffffffffffffffffffffffffffffffff1673ffffffffffffffffffffffffffffffffffffffff168152602001908152602001600020819055506148f081614b99565b6148fa8483614d3e565b8773ffffffffffffffffffffffffffffffffffffffff168973ffffffffffffffffffffffffffffffffffffffff167fddf252ad1be2c89b69c2b068fc378daa952ba7f163c4a11628f55a4df523b3ef856040516149579190615607565b60405180910390a3505050505050505050565b60008060008060008061497c8761336f565b9550955095509550955095506149da86600560008c73ffffffffffffffffffffffffffffffffffffffff1673ffffffffffffffffffffffffffffffffffffffff168152602001908152602001600020546133cb90919063ffffffff16565b600560008b73ffffffffffffffffffffffffffffffffffffffff1673ffffffffffffffffffffffffffffffffffffffff16815260200190815260200160002081905550614a6f85600560008b73ffffffffffffffffffffffffffffffffffffffff1673ffffffffffffffffffffffffffffffffffffffff1681526020019081526020016000205461331190919063ffffffff16565b600560008a73ffffffffffffffffffffffffffffffffffffffff1673ffffffffffffffffffffffffffffffffffffffff16815260200190815260200160002081905550614abb81614b99565b614ac58483614d3e565b8773ffffffffffffffffffffffffffffffffffffffff168973ffffffffffffffffffffffffffffffffffffffff167fddf252ad1be2c89b69c2b068fc378daa952ba7f163c4a11628f55a4df523b3ef85604051614b229190615607565b60405180910390a3505050505050505050565b6000614b606103e8614b5260115485612c7c90919063ffffffff16565b612c3290919063ffffffff16565b9050919050565b6000614b926103e8614b8460135485612c7c90919063ffffffff16565b612c3290919063ffffffff16565b9050919050565b6000614ba36132e6565b90506000614bba8284612c7c90919063ffffffff16565b9050614c0e81600560003073ffffffffffffffffffffffffffffffffffffffff1673ffffffffffffffffffffffffffffffffffffffff1681526020019081526020016000205461331190919063ffffffff16565b600560003073ffffffffffffffffffffffffffffffffffffffff1673ffffffffffffffffffffffffffffffffffffffff16815260200190815260200160002081905550600960003073ffffffffffffffffffffffffffffffffffffffff1673ffffffffffffffffffffffffffffffffffffffff16815260200190815260200160002060009054906101000a900460ff1615614d3957614cf583600660003073ffffffffffffffffffffffffffffffffffffffff1673ffffffffffffffffffffffffffffffffffffffff1681526020019081526020016000205461331190919063ffffffff16565b600660003073ffffffffffffffffffffffffffffffffffffffff1673ffffffffffffffffffffffffffffffffffffffff168152602001908152602001600020819055505b505050565b614d5382600c546133cb90919063ffffffff16565b600c81905550614d6e81600d5461331190919063ffffffff16565b600d819055505050565b600081359050614d8781615f2d565b92915050565b600081519050614d9c81615f2d565b92915050565b600081359050614db181615f44565b92915050565b600081359050614dc681615f5b565b92915050565b600060208284031215614de257614de1615a96565b5b6000614df084828501614d78565b91505092915050565b600060208284031215614e0f57614e0e615a96565b5b6000614e1d84828501614d8d565b91505092915050565b60008060408385031215614e3d57614e3c615a96565b5b6000614e4b85828601614d78565b9250506020614e5c85828601614d78565b9150509250929050565b600080600060608486031215614e7f57614e7e615a96565b5b6000614e8d86828701614d78565b9350506020614e9e86828701614d78565b9250506040614eaf86828701614db7565b9150509250925092565b60008060408385031215614ed057614ecf615a96565b5b6000614ede85828601614d78565b9250506020614eef85828601614db7565b9150509250929050565b600060208284031215614f0f57614f0e615a96565b5b6000614f1d84828501614da2565b91505092915050565b600060208284031215614f3c57614f3b615a96565b5b6000614f4a84828501614db7565b91505092915050565b60008060408385031215614f6a57614f69615a96565b5b6000614f7885828601614db7565b9250506020614f8985828601614da2565b9150509250929050565b6000614f9f8383614fba565b60208301905092915050565b614fb481615843565b82525050565b614fc381615831565b82525050565b614fd281615831565b82525050565b6000614fe3826156d7565b614fed81856156fa565b9350614ff8836156c7565b8060005b838110156150295781516150108882614f93565b975061501b836156ed565b925050600181019050614ffc565b5085935050505092915050565b61503f81615855565b82525050565b61504e81615898565b82525050565b61505d816158bc565b82525050565b600061506e826156e2565b615078818561570b565b93506150888185602086016158ce565b61509181615a9b565b840191505092915050565b60006150a960238361570b565b91506150b482615aac565b604082019050919050565b60006150cc602a8361570b565b91506150d782615afb565b604082019050919050565b60006150ef60268361570b565b91506150fa82615b4a565b604082019050919050565b600061511260228361570b565b915061511d82615b99565b604082019050919050565b6000615135601b8361570b565b915061514082615be8565b602082019050919050565b6000615158601b8361570b565b915061516382615c11565b602082019050919050565b600061517b601f8361570b565b915061518682615c3a565b602082019050919050565b600061519e60288361570b565b91506151a982615c63565b604082019050919050565b60006151c1602c8361570b565b91506151cc82615cb2565b604082019050919050565b60006151e460218361570b565b91506151ef82615d01565b604082019050919050565b600061520760208361570b565b915061521282615d50565b602082019050919050565b600061522a60298361570b565b915061523582615d79565b604082019050919050565b600061524d60258361570b565b915061525882615dc8565b604082019050919050565b600061527060248361570b565b915061527b82615e17565b604082019050919050565b6000615293601f8361570b565b915061529e82615e66565b602082019050919050565b60006152b6602c8361570b565b91506152c182615e8f565b604082019050919050565b60006152d960238361570b565b91506152e482615ede565b604082019050919050565b6152f881615881565b82525050565b6153078161588b565b82525050565b60006020820190506153226000830184614fc9565b92915050565b600060208201905061533d6000830184614fab565b92915050565b60006020820190506153586000830184615036565b92915050565b60006020820190506153736000830184615045565b92915050565b600060808201905061538e6000830187615054565b81810360208301526153a08186614fd8565b90506153af6040830185614fc9565b6153bc60608301846152ef565b95945050505050565b600060208201905081810360008301526153df8184615063565b905092915050565b600060208201905081810360008301526154008161509c565b9050919050565b60006020820190508181036000830152615420816150bf565b9050919050565b60006020820190508181036000830152615440816150e2565b9050919050565b6000602082019050818103600083015261546081615105565b9050919050565b6000602082019050818103600083015261548081615128565b9050919050565b600060208201905081810360008301526154a08161514b565b9050919050565b600060208201905081810360008301526154c08161516e565b9050919050565b600060208201905081810360008301526154e081615191565b9050919050565b60006020820190508181036000830152615500816151b4565b9050919050565b60006020820190508181036000830152615520816151d7565b9050919050565b60006020820190508181036000830152615540816151fa565b9050919050565b600060208201905081810360008301526155608161521d565b9050919050565b6000602082019050818103600083015261558081615240565b9050919050565b600060208201905081810360008301526155a081615263565b9050919050565b600060208201905081810360008301526155c081615286565b9050919050565b600060208201905081810360008301526155e0816152a9565b9050919050565b60006020820190508181036000830152615600816152cc565b9050919050565b600060208201905061561c60008301846152ef565b92915050565b600060408201905061563760008301856152ef565b81810360208301526156498184614fd8565b90509392505050565b600060a08201905061566760008301886152ef565b6156746020830187615054565b81810360408301526156868186614fd8565b90506156956060830185614fc9565b6156a260808301846152ef565b9695505050505050565b60006020820190506156c160008301846152fe565b92915050565b6000819050602082019050919050565b600081519050919050565b600081519050919050565b6000602082019050919050565b600082825260208201905092915050565b600082825260208201905092915050565b600061572782615881565b915061573283615881565b9250827fffffffffffffffffffffffffffffffffffffffffffffffffffffffffffffffff038211156157675761576661597c565b5b828201905092915050565b600061577d82615881565b915061578883615881565b925082615798576157976159ab565b5b828204905092915050565b60006157ae82615881565b91506157b983615881565b9250817fffffffffffffffffffffffffffffffffffffffffffffffffffffffffffffffff04831182151516156157f2576157f161597c565b5b828202905092915050565b600061580882615881565b915061581383615881565b9250828210156158265761582561597c565b5b828203905092915050565b600061583c82615861565b9050919050565b600061584e82615861565b9050919050565b60008115159050919050565b600073ffffffffffffffffffffffffffffffffffffffff82169050919050565b6000819050919050565b600060ff82169050919050565b60006158a3826158aa565b9050919050565b60006158b582615861565b9050919050565b60006158c782615881565b9050919050565b60005b838110156158ec5780820151818401526020810190506158d1565b838111156158fb576000848401525b50505050565b6000600282049050600182168061591957607f821691505b6020821081141561592d5761592c6159da565b5b50919050565b600061593e82615881565b91507fffffffffffffffffffffffffffffffffffffffffffffffffffffffffffffffff8214156159715761597061597c565b5b600182019050919050565b7f4e487b7100000000000000000000000000000000000000000000000000000000600052601160045260246000fd5b7f4e487b7100000000000000000000000000000000000000000000000000000000600052601260045260246000fd5b7f4e487b7100000000000000000000000000000000000000000000000000000000600052602260045260246000fd5b7f4e487b7100000000000000000000000000000000000000000000000000000000600052603160045260246000fd5b7f4e487b7100000000000000000000000000000000000000000000000000000000600052603260045260246000fd5b7f4e487b7100000000000000000000000000000000000000000000000000000000600052604160045260246000fd5b600080fd5b6000601f19601f8301169050919050565b7f45524332303a207472616e7366657220746f20746865207a65726f206164647260008201527f6573730000000000000000000000000000000000000000000000000000000000602082015250565b7f416d6f756e74206d757374206265206c657373207468616e20746f74616c207260008201527f65666c656374696f6e7300000000000000000000000000000000000000000000602082015250565b7f4f776e61626c653a206e6577206f776e657220697320746865207a65726f206160008201527f6464726573730000000000000000000000000000000000000000000000000000602082015250565b7f45524332303a20617070726f766520746f20746865207a65726f20616464726560008201527f7373000000000000000000000000000000000000000000000000000000000000602082015250565b7f536166654d6174683a206164646974696f6e206f766572666c6f770000000000600082015250565b7f4163636f756e7420697320616c7265616479206578636c756465640000000000600082015250565b7f416d6f756e74206d757374206265206c657373207468616e20737570706c7900600082015250565b7f5472616e7366657220616d6f756e74206578636565647320746865206d61785460008201527f78416d6f756e742e000000000000000000000000000000000000000000000000602082015250565b7f4d61726b6574696e67206665652063616e206e6f74206265206c65737320746860008201527f616e20352070657263656e740000000000000000000000000000000000000000602082015250565b7f536166654d6174683a206d756c7469706c69636174696f6e206f766572666c6f60008201527f7700000000000000000000000000000000000000000000000000000000000000602082015250565b7f4f776e61626c653a2063616c6c6572206973206e6f7420746865206f776e6572600082015250565b7f5472616e7366657220616d6f756e74206d75737420626520677265617465722060008201527f7468616e207a65726f0000000000000000000000000000000000000000000000602082015250565b7f45524332303a207472616e736665722066726f6d20746865207a65726f20616460008201527f6472657373000000000000000000000000000000000000000000000000000000602082015250565b7f45524332303a20617070726f76652066726f6d20746865207a65726f2061646460008201527f7265737300000000000000000000000000000000000000000000000000000000602082015250565b7f436f6e7472616374206973206c6f636b656420756e74696c2037206461797300600082015250565b7f4578636c75646564206164647265737365732063616e6e6f742063616c6c207460008201527f6869732066756e6374696f6e0000000000000000000000000000000000000000602082015250565b7f596f7520646f6e27742068617665207065726d697373696f6e20746f20756e6c60008201527f6f636b0000000000000000000000000000000000000000000000000000000000602082015250565b615f3681615831565b8114615f4157600080fd5b50565b615f4d81615855565b8114615f5857600080fd5b50565b615f6481615881565b8114615f6f57600080fd5b5056fe45524332303a207472616e7366657220616d6f756e74206578636565647320616c6c6f77616e636545524332303a2064656372656173656420616c6c6f77616e63652062656c6f77207a65726fa2646970667358221220d95010c6858177e488c8ba19f47406606cee42e6d00ae6b59c02d405320f7fc864736f6c63430008050033",
  "linkReferences": {},
  "deployedLinkReferences": {}
}